{
	"contracts/JarvisLedger.sol": {
		"JarvisLedger": {
			"abi": [
				{
					"inputs": [],
					"stateMutability": "nonpayable",
					"type": "constructor"
				},
				{
					"anonymous": false,
					"inputs": [
						{
							"indexed": false,
							"internalType": "string",
							"name": "fromAccount",
							"type": "string"
						},
						{
							"indexed": false,
							"internalType": "string",
							"name": "toAccount",
							"type": "string"
						},
						{
							"indexed": false,
							"internalType": "uint256",
							"name": "amount",
							"type": "uint256"
						},
						{
							"indexed": false,
							"internalType": "string",
							"name": "description",
							"type": "string"
						},
						{
							"indexed": false,
							"internalType": "uint256",
							"name": "timestamp",
							"type": "uint256"
						}
					],
					"name": "BrinksCollected",
					"type": "event"
				},
				{
					"anonymous": false,
					"inputs": [
						{
							"indexed": false,
							"internalType": "string",
							"name": "eventType",
							"type": "string"
						},
						{
							"indexed": false,
							"internalType": "string",
							"name": "debitAccount",
							"type": "string"
						},
						{
							"indexed": false,
							"internalType": "string",
							"name": "creditAccount",
							"type": "string"
						},
						{
							"indexed": false,
							"internalType": "uint256",
							"name": "amount",
							"type": "uint256"
						},
						{
							"indexed": false,
							"internalType": "string",
							"name": "description",
							"type": "string"
						},
						{
							"indexed": false,
							"internalType": "uint256",
							"name": "timestamp",
							"type": "uint256"
						}
					],
					"name": "LedgerEntry",
					"type": "event"
				},
				{
					"anonymous": false,
					"inputs": [
						{
							"indexed": false,
							"internalType": "string",
							"name": "ipfsCid",
							"type": "string"
						},
						{
							"indexed": false,
							"internalType": "string",
							"name": "hash",
							"type": "string"
						},
						{
							"indexed": false,
							"internalType": "uint256",
							"name": "timestamp",
							"type": "uint256"
						}
					],
					"name": "TransactionLogged",
					"type": "event"
				},
				{
					"inputs": [
						{
							"internalType": "string",
							"name": "ipfsCid",
							"type": "string"
						},
						{
							"internalType": "string",
							"name": "hash",
							"type": "string"
						}
					],
					"name": "logTransaction",
					"outputs": [],
					"stateMutability": "nonpayable",
					"type": "function"
				},
				{
					"inputs": [],
					"name": "owner",
					"outputs": [
						{
							"internalType": "address",
							"name": "",
							"type": "address"
						}
					],
					"stateMutability": "view",
					"type": "function"
				},
				{
					"inputs": [
						{
							"internalType": "string",
							"name": "fromAccount",
							"type": "string"
						},
						{
							"internalType": "string",
							"name": "toAccount",
							"type": "string"
						},
						{
							"internalType": "uint256",
							"name": "amount",
							"type": "uint256"
						},
						{
							"internalType": "string",
							"name": "description",
							"type": "string"
						}
					],
					"name": "recordBrinksCollection",
					"outputs": [],
					"stateMutability": "nonpayable",
					"type": "function"
				},
				{
					"inputs": [
						{
							"internalType": "string",
							"name": "eventType",
							"type": "string"
						},
						{
							"internalType": "string",
							"name": "debitAccount",
							"type": "string"
						},
						{
							"internalType": "string",
							"name": "creditAccount",
							"type": "string"
						},
						{
							"internalType": "uint256",
							"name": "amount",
							"type": "uint256"
						},
						{
							"internalType": "string",
							"name": "description",
							"type": "string"
						}
					],
					"name": "recordLedgerEvent",
					"outputs": [],
					"stateMutability": "nonpayable",
					"type": "function"
				},
				{
					"inputs": [
						{
							"internalType": "address",
							"name": "newOwner",
							"type": "address"
						}
					],
					"name": "transferOwnership",
					"outputs": [],
					"stateMutability": "nonpayable",
					"type": "function"
				}
			],
			"devdoc": {
				"kind": "dev",
				"methods": {},
				"version": 1
			},
			"evm": {
				"assembly": "    /* \"contracts/JarvisLedger.sol\":58:1683  contract JarvisLedger {... */\n  mstore(0x40, 0x80)\n    /* \"contracts/JarvisLedger.sol\":683:732  constructor() {... */\n  callvalue\n  dup1\n  iszero\n  tag_1\n  jumpi\n  revert(0x00, 0x00)\ntag_1:\n  pop\n    /* \"contracts/JarvisLedger.sol\":715:725  msg.sender */\n  caller\n    /* \"contracts/JarvisLedger.sol\":707:712  owner */\n  0x00\n  0x00\n    /* \"contracts/JarvisLedger.sol\":707:725  owner = msg.sender */\n  0x0100\n  exp\n  dup2\n  sload\n  dup2\n  0xffffffffffffffffffffffffffffffffffffffff\n  mul\n  not\n  and\n  swap1\n  dup4\n  0xffffffffffffffffffffffffffffffffffffffff\n  and\n  mul\n  or\n  swap1\n  sstore\n  pop\n    /* \"contracts/JarvisLedger.sol\":58:1683  contract JarvisLedger {... */\n  dataSize(sub_0)\n  dup1\n  dataOffset(sub_0)\n  0x00\n  codecopy\n  0x00\n  return\nstop\n\nsub_0: assembly {\n        /* \"contracts/JarvisLedger.sol\":58:1683  contract JarvisLedger {... */\n      mstore(0x40, 0x80)\n      callvalue\n      dup1\n      iszero\n      tag_1\n      jumpi\n      revert(0x00, 0x00)\n    tag_1:\n      pop\n      jumpi(tag_2, lt(calldatasize, 0x04))\n      shr(0xe0, calldataload(0x00))\n      dup1\n      0x2b2fa6b6\n      eq\n      tag_3\n      jumpi\n      dup1\n      0x75aaf4ba\n      eq\n      tag_4\n      jumpi\n      dup1\n      0x8da5cb5b\n      eq\n      tag_5\n      jumpi\n      dup1\n      0xd8628357\n      eq\n      tag_6\n      jumpi\n      dup1\n      0xf2fde38b\n      eq\n      tag_7\n      jumpi\n    tag_2:\n      revert(0x00, 0x00)\n        /* \"contracts/JarvisLedger.sol\":738:1066  function recordLedgerEvent(... */\n    tag_3:\n      tag_8\n      0x04\n      dup1\n      calldatasize\n      sub\n      dup2\n      add\n      swap1\n      tag_9\n      swap2\n      swap1\n      tag_10\n      jump\t// in\n    tag_9:\n      tag_11\n      jump\t// in\n    tag_8:\n      stop\n        /* \"contracts/JarvisLedger.sol\":1072:1355  function recordBrinksCollection(... */\n    tag_4:\n      tag_12\n      0x04\n      dup1\n      calldatasize\n      sub\n      dup2\n      add\n      swap1\n      tag_13\n      swap2\n      swap1\n      tag_14\n      jump\t// in\n    tag_13:\n      tag_15\n      jump\t// in\n    tag_12:\n      stop\n        /* \"contracts/JarvisLedger.sol\":86:106  address public owner */\n    tag_5:\n      tag_16\n      tag_17\n      jump\t// in\n    tag_16:\n      mload(0x40)\n      tag_18\n      swap2\n      swap1\n      tag_19\n      jump\t// in\n    tag_18:\n      mload(0x40)\n      dup1\n      swap2\n      sub\n      swap1\n      return\n        /* \"contracts/JarvisLedger.sol\":1361:1518  function logTransaction(string memory ipfsCid, string memory hash) external onlyOwner {... */\n    tag_6:\n      tag_20\n      0x04\n      dup1\n      calldatasize\n      sub\n      dup2\n      add\n      swap1\n      tag_21\n      swap2\n      swap1\n      tag_22\n      jump\t// in\n    tag_21:\n      tag_23\n      jump\t// in\n    tag_20:\n      stop\n        /* \"contracts/JarvisLedger.sol\":1524:1681  function transferOwnership(address newOwner) external onlyOwner {... */\n    tag_7:\n      tag_24\n      0x04\n      dup1\n      calldatasize\n      sub\n      dup2\n      add\n      swap1\n      tag_25\n      swap2\n      swap1\n      tag_26\n      jump\t// in\n    tag_25:\n      tag_27\n      jump\t// in\n    tag_24:\n      stop\n        /* \"contracts/JarvisLedger.sol\":738:1066  function recordLedgerEvent(... */\n    tag_11:\n        /* \"contracts/JarvisLedger.sol\":635:640  owner */\n      0x00\n      0x00\n      swap1\n      sload\n      swap1\n      0x0100\n      exp\n      swap1\n      div\n      0xffffffffffffffffffffffffffffffffffffffff\n      and\n        /* \"contracts/JarvisLedger.sol\":621:640  msg.sender == owner */\n      0xffffffffffffffffffffffffffffffffffffffff\n      and\n        /* \"contracts/JarvisLedger.sol\":621:631  msg.sender */\n      caller\n        /* \"contracts/JarvisLedger.sol\":621:640  msg.sender == owner */\n      0xffffffffffffffffffffffffffffffffffffffff\n      and\n      eq\n        /* \"contracts/JarvisLedger.sol\":613:659  require(msg.sender == owner, \"Not authorized\") */\n      tag_29\n      jumpi\n      mload(0x40)\n      0x08c379a000000000000000000000000000000000000000000000000000000000\n      dup2\n      mstore\n      0x04\n      add\n      tag_30\n      swap1\n      tag_31\n      jump\t// in\n    tag_30:\n      mload(0x40)\n      dup1\n      swap2\n      sub\n      swap1\n      revert\n    tag_29:\n        /* \"contracts/JarvisLedger.sol\":970:1059  LedgerEntry(eventType, debitAccount, creditAccount, amount, description, block.timestamp) */\n      0xb1fb174d309350caca6887deeca3e81678a7a7b66ac7d3e70b8d482f052d5b6c\n        /* \"contracts/JarvisLedger.sol\":982:991  eventType */\n      dup6\n        /* \"contracts/JarvisLedger.sol\":993:1005  debitAccount */\n      dup6\n        /* \"contracts/JarvisLedger.sol\":1007:1020  creditAccount */\n      dup6\n        /* \"contracts/JarvisLedger.sol\":1022:1028  amount */\n      dup6\n        /* \"contracts/JarvisLedger.sol\":1030:1041  description */\n      dup6\n        /* \"contracts/JarvisLedger.sol\":1043:1058  block.timestamp */\n      timestamp\n        /* \"contracts/JarvisLedger.sol\":970:1059  LedgerEntry(eventType, debitAccount, creditAccount, amount, description, block.timestamp) */\n      mload(0x40)\n      tag_33\n      swap7\n      swap6\n      swap5\n      swap4\n      swap3\n      swap2\n      swap1\n      tag_34\n      jump\t// in\n    tag_33:\n      mload(0x40)\n      dup1\n      swap2\n      sub\n      swap1\n      log1\n        /* \"contracts/JarvisLedger.sol\":738:1066  function recordLedgerEvent(... */\n      pop\n      pop\n      pop\n      pop\n      pop\n      jump\t// out\n        /* \"contracts/JarvisLedger.sol\":1072:1355  function recordBrinksCollection(... */\n    tag_15:\n        /* \"contracts/JarvisLedger.sol\":635:640  owner */\n      0x00\n      0x00\n      swap1\n      sload\n      swap1\n      0x0100\n      exp\n      swap1\n      div\n      0xffffffffffffffffffffffffffffffffffffffff\n      and\n        /* \"contracts/JarvisLedger.sol\":621:640  msg.sender == owner */\n      0xffffffffffffffffffffffffffffffffffffffff\n      and\n        /* \"contracts/JarvisLedger.sol\":621:631  msg.sender */\n      caller\n        /* \"contracts/JarvisLedger.sol\":621:640  msg.sender == owner */\n      0xffffffffffffffffffffffffffffffffffffffff\n      and\n      eq\n        /* \"contracts/JarvisLedger.sol\":613:659  require(msg.sender == owner, \"Not authorized\") */\n      tag_36\n      jumpi\n      mload(0x40)\n      0x08c379a000000000000000000000000000000000000000000000000000000000\n      dup2\n      mstore\n      0x04\n      add\n      tag_37\n      swap1\n      tag_31\n      jump\t// in\n    tag_37:\n      mload(0x40)\n      dup1\n      swap2\n      sub\n      swap1\n      revert\n    tag_36:\n        /* \"contracts/JarvisLedger.sol\":1271:1348  BrinksCollected(fromAccount, toAccount, amount, description, block.timestamp) */\n      0x9afdac1183831ea881cf02d9fab5b9205b3eca25add1b7f799a0f8cf855cd7e1\n        /* \"contracts/JarvisLedger.sol\":1287:1298  fromAccount */\n      dup5\n        /* \"contracts/JarvisLedger.sol\":1300:1309  toAccount */\n      dup5\n        /* \"contracts/JarvisLedger.sol\":1311:1317  amount */\n      dup5\n        /* \"contracts/JarvisLedger.sol\":1319:1330  description */\n      dup5\n        /* \"contracts/JarvisLedger.sol\":1332:1347  block.timestamp */\n      timestamp\n        /* \"contracts/JarvisLedger.sol\":1271:1348  BrinksCollected(fromAccount, toAccount, amount, description, block.timestamp) */\n      mload(0x40)\n      tag_39\n      swap6\n      swap5\n      swap4\n      swap3\n      swap2\n      swap1\n      tag_40\n      jump\t// in\n    tag_39:\n      mload(0x40)\n      dup1\n      swap2\n      sub\n      swap1\n      log1\n        /* \"contracts/JarvisLedger.sol\":1072:1355  function recordBrinksCollection(... */\n      pop\n      pop\n      pop\n      pop\n      jump\t// out\n        /* \"contracts/JarvisLedger.sol\":86:106  address public owner */\n    tag_17:\n      0x00\n      0x00\n      swap1\n      sload\n      swap1\n      0x0100\n      exp\n      swap1\n      div\n      0xffffffffffffffffffffffffffffffffffffffff\n      and\n      dup2\n      jump\t// out\n        /* \"contracts/JarvisLedger.sol\":1361:1518  function logTransaction(string memory ipfsCid, string memory hash) external onlyOwner {... */\n    tag_23:\n        /* \"contracts/JarvisLedger.sol\":635:640  owner */\n      0x00\n      0x00\n      swap1\n      sload\n      swap1\n      0x0100\n      exp\n      swap1\n      div\n      0xffffffffffffffffffffffffffffffffffffffff\n      and\n        /* \"contracts/JarvisLedger.sol\":621:640  msg.sender == owner */\n      0xffffffffffffffffffffffffffffffffffffffff\n      and\n        /* \"contracts/JarvisLedger.sol\":621:631  msg.sender */\n      caller\n        /* \"contracts/JarvisLedger.sol\":621:640  msg.sender == owner */\n      0xffffffffffffffffffffffffffffffffffffffff\n      and\n      eq\n        /* \"contracts/JarvisLedger.sol\":613:659  require(msg.sender == owner, \"Not authorized\") */\n      tag_42\n      jumpi\n      mload(0x40)\n      0x08c379a000000000000000000000000000000000000000000000000000000000\n      dup2\n      mstore\n      0x04\n      add\n      tag_43\n      swap1\n      tag_31\n      jump\t// in\n    tag_43:\n      mload(0x40)\n      dup1\n      swap2\n      sub\n      swap1\n      revert\n    tag_42:\n        /* \"contracts/JarvisLedger.sol\":1462:1511  TransactionLogged(ipfsCid, hash, block.timestamp) */\n      0x1c5bd18aff5597bc35f31e98e4324ff45fe4290eaa764727b715ffeb3dc22181\n        /* \"contracts/JarvisLedger.sol\":1480:1487  ipfsCid */\n      dup3\n        /* \"contracts/JarvisLedger.sol\":1489:1493  hash */\n      dup3\n        /* \"contracts/JarvisLedger.sol\":1495:1510  block.timestamp */\n      timestamp\n        /* \"contracts/JarvisLedger.sol\":1462:1511  TransactionLogged(ipfsCid, hash, block.timestamp) */\n      mload(0x40)\n      tag_45\n      swap4\n      swap3\n      swap2\n      swap1\n      tag_46\n      jump\t// in\n    tag_45:\n      mload(0x40)\n      dup1\n      swap2\n      sub\n      swap1\n      log1\n        /* \"contracts/JarvisLedger.sol\":1361:1518  function logTransaction(string memory ipfsCid, string memory hash) external onlyOwner {... */\n      pop\n      pop\n      jump\t// out\n        /* \"contracts/JarvisLedger.sol\":1524:1681  function transferOwnership(address newOwner) external onlyOwner {... */\n    tag_27:\n        /* \"contracts/JarvisLedger.sol\":635:640  owner */\n      0x00\n      0x00\n      swap1\n      sload\n      swap1\n      0x0100\n      exp\n      swap1\n      div\n      0xffffffffffffffffffffffffffffffffffffffff\n      and\n        /* \"contracts/JarvisLedger.sol\":621:640  msg.sender == owner */\n      0xffffffffffffffffffffffffffffffffffffffff\n      and\n        /* \"contracts/JarvisLedger.sol\":621:631  msg.sender */\n      caller\n        /* \"contracts/JarvisLedger.sol\":621:640  msg.sender == owner */\n      0xffffffffffffffffffffffffffffffffffffffff\n      and\n      eq\n        /* \"contracts/JarvisLedger.sol\":613:659  require(msg.sender == owner, \"Not authorized\") */\n      tag_48\n      jumpi\n      mload(0x40)\n      0x08c379a000000000000000000000000000000000000000000000000000000000\n      dup2\n      mstore\n      0x04\n      add\n      tag_49\n      swap1\n      tag_31\n      jump\t// in\n    tag_49:\n      mload(0x40)\n      dup1\n      swap2\n      sub\n      swap1\n      revert\n    tag_48:\n        /* \"contracts/JarvisLedger.sol\":1626:1627  0 */\n      0x00\n        /* \"contracts/JarvisLedger.sol\":1606:1628  newOwner != address(0) */\n      0xffffffffffffffffffffffffffffffffffffffff\n      and\n        /* \"contracts/JarvisLedger.sol\":1606:1614  newOwner */\n      dup2\n        /* \"contracts/JarvisLedger.sol\":1606:1628  newOwner != address(0) */\n      0xffffffffffffffffffffffffffffffffffffffff\n      and\n      sub\n        /* \"contracts/JarvisLedger.sol\":1598:1648  require(newOwner != address(0), \"Invalid address\") */\n      tag_51\n      jumpi\n      mload(0x40)\n      0x08c379a000000000000000000000000000000000000000000000000000000000\n      dup2\n      mstore\n      0x04\n      add\n      tag_52\n      swap1\n      tag_53\n      jump\t// in\n    tag_52:\n      mload(0x40)\n      dup1\n      swap2\n      sub\n      swap1\n      revert\n    tag_51:\n        /* \"contracts/JarvisLedger.sol\":1666:1674  newOwner */\n      dup1\n        /* \"contracts/JarvisLedger.sol\":1658:1663  owner */\n      0x00\n      0x00\n        /* \"contracts/JarvisLedger.sol\":1658:1674  owner = newOwner */\n      0x0100\n      exp\n      dup2\n      sload\n      dup2\n      0xffffffffffffffffffffffffffffffffffffffff\n      mul\n      not\n      and\n      swap1\n      dup4\n      0xffffffffffffffffffffffffffffffffffffffff\n      and\n      mul\n      or\n      swap1\n      sstore\n      pop\n        /* \"contracts/JarvisLedger.sol\":1524:1681  function transferOwnership(address newOwner) external onlyOwner {... */\n      pop\n      jump\t// out\n        /* \"#utility.yul\":7:82   */\n    tag_54:\n        /* \"#utility.yul\":40:46   */\n      0x00\n        /* \"#utility.yul\":73:75   */\n      0x40\n        /* \"#utility.yul\":67:76   */\n      mload\n        /* \"#utility.yul\":57:76   */\n      swap1\n      pop\n        /* \"#utility.yul\":7:82   */\n      swap1\n      jump\t// out\n        /* \"#utility.yul\":88:205   */\n    tag_55:\n        /* \"#utility.yul\":197:198   */\n      0x00\n        /* \"#utility.yul\":194:195   */\n      0x00\n        /* \"#utility.yul\":187:199   */\n      revert\n        /* \"#utility.yul\":211:328   */\n    tag_56:\n        /* \"#utility.yul\":320:321   */\n      0x00\n        /* \"#utility.yul\":317:318   */\n      0x00\n        /* \"#utility.yul\":310:322   */\n      revert\n        /* \"#utility.yul\":334:451   */\n    tag_57:\n        /* \"#utility.yul\":443:444   */\n      0x00\n        /* \"#utility.yul\":440:441   */\n      0x00\n        /* \"#utility.yul\":433:445   */\n      revert\n        /* \"#utility.yul\":457:574   */\n    tag_58:\n        /* \"#utility.yul\":566:567   */\n      0x00\n        /* \"#utility.yul\":563:564   */\n      0x00\n        /* \"#utility.yul\":556:568   */\n      revert\n        /* \"#utility.yul\":580:682   */\n    tag_59:\n        /* \"#utility.yul\":621:627   */\n      0x00\n        /* \"#utility.yul\":672:674   */\n      0x1f\n        /* \"#utility.yul\":668:675   */\n      not\n        /* \"#utility.yul\":663:665   */\n      0x1f\n        /* \"#utility.yul\":656:661   */\n      dup4\n        /* \"#utility.yul\":652:666   */\n      add\n        /* \"#utility.yul\":648:676   */\n      and\n        /* \"#utility.yul\":638:676   */\n      swap1\n      pop\n        /* \"#utility.yul\":580:682   */\n      swap2\n      swap1\n      pop\n      jump\t// out\n        /* \"#utility.yul\":688:868   */\n    tag_60:\n        /* \"#utility.yul\":736:813   */\n      0x4e487b7100000000000000000000000000000000000000000000000000000000\n        /* \"#utility.yul\":733:734   */\n      0x00\n        /* \"#utility.yul\":726:814   */\n      mstore\n        /* \"#utility.yul\":833:837   */\n      0x41\n        /* \"#utility.yul\":830:831   */\n      0x04\n        /* \"#utility.yul\":823:838   */\n      mstore\n        /* \"#utility.yul\":857:861   */\n      0x24\n        /* \"#utility.yul\":854:855   */\n      0x00\n        /* \"#utility.yul\":847:862   */\n      revert\n        /* \"#utility.yul\":874:1155   */\n    tag_61:\n        /* \"#utility.yul\":957:984   */\n      tag_93\n        /* \"#utility.yul\":979:983   */\n      dup3\n        /* \"#utility.yul\":957:984   */\n      tag_59\n      jump\t// in\n    tag_93:\n        /* \"#utility.yul\":949:955   */\n      dup2\n        /* \"#utility.yul\":945:985   */\n      add\n        /* \"#utility.yul\":1087:1093   */\n      dup2\n        /* \"#utility.yul\":1075:1085   */\n      dup2\n        /* \"#utility.yul\":1072:1094   */\n      lt\n        /* \"#utility.yul\":1051:1069   */\n      0xffffffffffffffff\n        /* \"#utility.yul\":1039:1049   */\n      dup3\n        /* \"#utility.yul\":1036:1070   */\n      gt\n        /* \"#utility.yul\":1033:1095   */\n      or\n        /* \"#utility.yul\":1030:1118   */\n      iszero\n      tag_94\n      jumpi\n        /* \"#utility.yul\":1098:1116   */\n      tag_95\n      tag_60\n      jump\t// in\n    tag_95:\n        /* \"#utility.yul\":1030:1118   */\n    tag_94:\n        /* \"#utility.yul\":1138:1148   */\n      dup1\n        /* \"#utility.yul\":1134:1136   */\n      0x40\n        /* \"#utility.yul\":1127:1149   */\n      mstore\n        /* \"#utility.yul\":917:1155   */\n      pop\n        /* \"#utility.yul\":874:1155   */\n      pop\n      pop\n      jump\t// out\n        /* \"#utility.yul\":1161:1290   */\n    tag_62:\n        /* \"#utility.yul\":1195:1201   */\n      0x00\n        /* \"#utility.yul\":1222:1242   */\n      tag_97\n      tag_54\n      jump\t// in\n    tag_97:\n        /* \"#utility.yul\":1212:1242   */\n      swap1\n      pop\n        /* \"#utility.yul\":1251:1284   */\n      tag_98\n        /* \"#utility.yul\":1279:1283   */\n      dup3\n        /* \"#utility.yul\":1271:1277   */\n      dup3\n        /* \"#utility.yul\":1251:1284   */\n      tag_61\n      jump\t// in\n    tag_98:\n        /* \"#utility.yul\":1161:1290   */\n      swap2\n      swap1\n      pop\n      jump\t// out\n        /* \"#utility.yul\":1296:1604   */\n    tag_63:\n        /* \"#utility.yul\":1358:1362   */\n      0x00\n        /* \"#utility.yul\":1448:1466   */\n      0xffffffffffffffff\n        /* \"#utility.yul\":1440:1446   */\n      dup3\n        /* \"#utility.yul\":1437:1467   */\n      gt\n        /* \"#utility.yul\":1434:1490   */\n      iszero\n      tag_100\n      jumpi\n        /* \"#utility.yul\":1470:1488   */\n      tag_101\n      tag_60\n      jump\t// in\n    tag_101:\n        /* \"#utility.yul\":1434:1490   */\n    tag_100:\n        /* \"#utility.yul\":1508:1537   */\n      tag_102\n        /* \"#utility.yul\":1530:1536   */\n      dup3\n        /* \"#utility.yul\":1508:1537   */\n      tag_59\n      jump\t// in\n    tag_102:\n        /* \"#utility.yul\":1500:1537   */\n      swap1\n      pop\n        /* \"#utility.yul\":1592:1596   */\n      0x20\n        /* \"#utility.yul\":1586:1590   */\n      dup2\n        /* \"#utility.yul\":1582:1597   */\n      add\n        /* \"#utility.yul\":1574:1597   */\n      swap1\n      pop\n        /* \"#utility.yul\":1296:1604   */\n      swap2\n      swap1\n      pop\n      jump\t// out\n        /* \"#utility.yul\":1610:1758   */\n    tag_64:\n        /* \"#utility.yul\":1708:1714   */\n      dup3\n        /* \"#utility.yul\":1703:1706   */\n      dup2\n        /* \"#utility.yul\":1698:1701   */\n      dup4\n        /* \"#utility.yul\":1685:1715   */\n      calldatacopy\n        /* \"#utility.yul\":1749:1750   */\n      0x00\n        /* \"#utility.yul\":1740:1746   */\n      dup4\n        /* \"#utility.yul\":1735:1738   */\n      dup4\n        /* \"#utility.yul\":1731:1747   */\n      add\n        /* \"#utility.yul\":1724:1751   */\n      mstore\n        /* \"#utility.yul\":1610:1758   */\n      pop\n      pop\n      pop\n      jump\t// out\n        /* \"#utility.yul\":1764:2189   */\n    tag_65:\n        /* \"#utility.yul\":1842:1847   */\n      0x00\n        /* \"#utility.yul\":1867:1933   */\n      tag_105\n        /* \"#utility.yul\":1883:1932   */\n      tag_106\n        /* \"#utility.yul\":1925:1931   */\n      dup5\n        /* \"#utility.yul\":1883:1932   */\n      tag_63\n      jump\t// in\n    tag_106:\n        /* \"#utility.yul\":1867:1933   */\n      tag_62\n      jump\t// in\n    tag_105:\n        /* \"#utility.yul\":1858:1933   */\n      swap1\n      pop\n        /* \"#utility.yul\":1956:1962   */\n      dup3\n        /* \"#utility.yul\":1949:1954   */\n      dup2\n        /* \"#utility.yul\":1942:1963   */\n      mstore\n        /* \"#utility.yul\":1994:1998   */\n      0x20\n        /* \"#utility.yul\":1987:1992   */\n      dup2\n        /* \"#utility.yul\":1983:1999   */\n      add\n        /* \"#utility.yul\":2032:2035   */\n      dup5\n        /* \"#utility.yul\":2023:2029   */\n      dup5\n        /* \"#utility.yul\":2018:2021   */\n      dup5\n        /* \"#utility.yul\":2014:2030   */\n      add\n        /* \"#utility.yul\":2011:2036   */\n      gt\n        /* \"#utility.yul\":2008:2120   */\n      iszero\n      tag_107\n      jumpi\n        /* \"#utility.yul\":2039:2118   */\n      tag_108\n      tag_58\n      jump\t// in\n    tag_108:\n        /* \"#utility.yul\":2008:2120   */\n    tag_107:\n        /* \"#utility.yul\":2129:2183   */\n      tag_109\n        /* \"#utility.yul\":2176:2182   */\n      dup5\n        /* \"#utility.yul\":2171:2174   */\n      dup3\n        /* \"#utility.yul\":2166:2169   */\n      dup6\n        /* \"#utility.yul\":2129:2183   */\n      tag_64\n      jump\t// in\n    tag_109:\n        /* \"#utility.yul\":1848:2189   */\n      pop\n        /* \"#utility.yul\":1764:2189   */\n      swap4\n      swap3\n      pop\n      pop\n      pop\n      jump\t// out\n        /* \"#utility.yul\":2209:2549   */\n    tag_66:\n        /* \"#utility.yul\":2265:2270   */\n      0x00\n        /* \"#utility.yul\":2314:2317   */\n      dup3\n        /* \"#utility.yul\":2307:2311   */\n      0x1f\n        /* \"#utility.yul\":2299:2305   */\n      dup4\n        /* \"#utility.yul\":2295:2312   */\n      add\n        /* \"#utility.yul\":2291:2318   */\n      slt\n        /* \"#utility.yul\":2281:2403   */\n      tag_111\n      jumpi\n        /* \"#utility.yul\":2322:2401   */\n      tag_112\n      tag_57\n      jump\t// in\n    tag_112:\n        /* \"#utility.yul\":2281:2403   */\n    tag_111:\n        /* \"#utility.yul\":2439:2445   */\n      dup2\n        /* \"#utility.yul\":2426:2446   */\n      calldataload\n        /* \"#utility.yul\":2464:2543   */\n      tag_113\n        /* \"#utility.yul\":2539:2542   */\n      dup5\n        /* \"#utility.yul\":2531:2537   */\n      dup3\n        /* \"#utility.yul\":2524:2528   */\n      0x20\n        /* \"#utility.yul\":2516:2522   */\n      dup7\n        /* \"#utility.yul\":2512:2529   */\n      add\n        /* \"#utility.yul\":2464:2543   */\n      tag_65\n      jump\t// in\n    tag_113:\n        /* \"#utility.yul\":2455:2543   */\n      swap2\n      pop\n        /* \"#utility.yul\":2271:2549   */\n      pop\n        /* \"#utility.yul\":2209:2549   */\n      swap3\n      swap2\n      pop\n      pop\n      jump\t// out\n        /* \"#utility.yul\":2555:2632   */\n    tag_67:\n        /* \"#utility.yul\":2592:2599   */\n      0x00\n        /* \"#utility.yul\":2621:2626   */\n      dup2\n        /* \"#utility.yul\":2610:2626   */\n      swap1\n      pop\n        /* \"#utility.yul\":2555:2632   */\n      swap2\n      swap1\n      pop\n      jump\t// out\n        /* \"#utility.yul\":2638:2760   */\n    tag_68:\n        /* \"#utility.yul\":2711:2735   */\n      tag_116\n        /* \"#utility.yul\":2729:2734   */\n      dup2\n        /* \"#utility.yul\":2711:2735   */\n      tag_67\n      jump\t// in\n    tag_116:\n        /* \"#utility.yul\":2704:2709   */\n      dup2\n        /* \"#utility.yul\":2701:2736   */\n      eq\n        /* \"#utility.yul\":2691:2754   */\n      tag_117\n      jumpi\n        /* \"#utility.yul\":2750:2751   */\n      0x00\n        /* \"#utility.yul\":2747:2748   */\n      0x00\n        /* \"#utility.yul\":2740:2752   */\n      revert\n        /* \"#utility.yul\":2691:2754   */\n    tag_117:\n        /* \"#utility.yul\":2638:2760   */\n      pop\n      jump\t// out\n        /* \"#utility.yul\":2766:2905   */\n    tag_69:\n        /* \"#utility.yul\":2812:2817   */\n      0x00\n        /* \"#utility.yul\":2850:2856   */\n      dup2\n        /* \"#utility.yul\":2837:2857   */\n      calldataload\n        /* \"#utility.yul\":2828:2857   */\n      swap1\n      pop\n        /* \"#utility.yul\":2866:2899   */\n      tag_119\n        /* \"#utility.yul\":2893:2898   */\n      dup2\n        /* \"#utility.yul\":2866:2899   */\n      tag_68\n      jump\t// in\n    tag_119:\n        /* \"#utility.yul\":2766:2905   */\n      swap3\n      swap2\n      pop\n      pop\n      jump\t// out\n        /* \"#utility.yul\":2911:4542   */\n    tag_10:\n        /* \"#utility.yul\":3046:3052   */\n      0x00\n        /* \"#utility.yul\":3054:3060   */\n      0x00\n        /* \"#utility.yul\":3062:3068   */\n      0x00\n        /* \"#utility.yul\":3070:3076   */\n      0x00\n        /* \"#utility.yul\":3078:3084   */\n      0x00\n        /* \"#utility.yul\":3127:3130   */\n      0xa0\n        /* \"#utility.yul\":3115:3124   */\n      dup7\n        /* \"#utility.yul\":3106:3113   */\n      dup9\n        /* \"#utility.yul\":3102:3125   */\n      sub\n        /* \"#utility.yul\":3098:3131   */\n      slt\n        /* \"#utility.yul\":3095:3215   */\n      iszero\n      tag_121\n      jumpi\n        /* \"#utility.yul\":3134:3213   */\n      tag_122\n      tag_55\n      jump\t// in\n    tag_122:\n        /* \"#utility.yul\":3095:3215   */\n    tag_121:\n        /* \"#utility.yul\":3282:3283   */\n      0x00\n        /* \"#utility.yul\":3271:3280   */\n      dup7\n        /* \"#utility.yul\":3267:3284   */\n      add\n        /* \"#utility.yul\":3254:3285   */\n      calldataload\n        /* \"#utility.yul\":3312:3330   */\n      0xffffffffffffffff\n        /* \"#utility.yul\":3304:3310   */\n      dup2\n        /* \"#utility.yul\":3301:3331   */\n      gt\n        /* \"#utility.yul\":3298:3415   */\n      iszero\n      tag_123\n      jumpi\n        /* \"#utility.yul\":3334:3413   */\n      tag_124\n      tag_56\n      jump\t// in\n    tag_124:\n        /* \"#utility.yul\":3298:3415   */\n    tag_123:\n        /* \"#utility.yul\":3439:3502   */\n      tag_125\n        /* \"#utility.yul\":3494:3501   */\n      dup9\n        /* \"#utility.yul\":3485:3491   */\n      dup3\n        /* \"#utility.yul\":3474:3483   */\n      dup10\n        /* \"#utility.yul\":3470:3492   */\n      add\n        /* \"#utility.yul\":3439:3502   */\n      tag_66\n      jump\t// in\n    tag_125:\n        /* \"#utility.yul\":3429:3502   */\n      swap6\n      pop\n        /* \"#utility.yul\":3225:3512   */\n      pop\n        /* \"#utility.yul\":3579:3581   */\n      0x20\n        /* \"#utility.yul\":3568:3577   */\n      dup7\n        /* \"#utility.yul\":3564:3582   */\n      add\n        /* \"#utility.yul\":3551:3583   */\n      calldataload\n        /* \"#utility.yul\":3610:3628   */\n      0xffffffffffffffff\n        /* \"#utility.yul\":3602:3608   */\n      dup2\n        /* \"#utility.yul\":3599:3629   */\n      gt\n        /* \"#utility.yul\":3596:3713   */\n      iszero\n      tag_126\n      jumpi\n        /* \"#utility.yul\":3632:3711   */\n      tag_127\n      tag_56\n      jump\t// in\n    tag_127:\n        /* \"#utility.yul\":3596:3713   */\n    tag_126:\n        /* \"#utility.yul\":3737:3800   */\n      tag_128\n        /* \"#utility.yul\":3792:3799   */\n      dup9\n        /* \"#utility.yul\":3783:3789   */\n      dup3\n        /* \"#utility.yul\":3772:3781   */\n      dup10\n        /* \"#utility.yul\":3768:3790   */\n      add\n        /* \"#utility.yul\":3737:3800   */\n      tag_66\n      jump\t// in\n    tag_128:\n        /* \"#utility.yul\":3727:3800   */\n      swap5\n      pop\n        /* \"#utility.yul\":3522:3810   */\n      pop\n        /* \"#utility.yul\":3877:3879   */\n      0x40\n        /* \"#utility.yul\":3866:3875   */\n      dup7\n        /* \"#utility.yul\":3862:3880   */\n      add\n        /* \"#utility.yul\":3849:3881   */\n      calldataload\n        /* \"#utility.yul\":3908:3926   */\n      0xffffffffffffffff\n        /* \"#utility.yul\":3900:3906   */\n      dup2\n        /* \"#utility.yul\":3897:3927   */\n      gt\n        /* \"#utility.yul\":3894:4011   */\n      iszero\n      tag_129\n      jumpi\n        /* \"#utility.yul\":3930:4009   */\n      tag_130\n      tag_56\n      jump\t// in\n    tag_130:\n        /* \"#utility.yul\":3894:4011   */\n    tag_129:\n        /* \"#utility.yul\":4035:4098   */\n      tag_131\n        /* \"#utility.yul\":4090:4097   */\n      dup9\n        /* \"#utility.yul\":4081:4087   */\n      dup3\n        /* \"#utility.yul\":4070:4079   */\n      dup10\n        /* \"#utility.yul\":4066:4088   */\n      add\n        /* \"#utility.yul\":4035:4098   */\n      tag_66\n      jump\t// in\n    tag_131:\n        /* \"#utility.yul\":4025:4098   */\n      swap4\n      pop\n        /* \"#utility.yul\":3820:4108   */\n      pop\n        /* \"#utility.yul\":4147:4149   */\n      0x60\n        /* \"#utility.yul\":4173:4226   */\n      tag_132\n        /* \"#utility.yul\":4218:4225   */\n      dup9\n        /* \"#utility.yul\":4209:4215   */\n      dup3\n        /* \"#utility.yul\":4198:4207   */\n      dup10\n        /* \"#utility.yul\":4194:4216   */\n      add\n        /* \"#utility.yul\":4173:4226   */\n      tag_69\n      jump\t// in\n    tag_132:\n        /* \"#utility.yul\":4163:4226   */\n      swap3\n      pop\n        /* \"#utility.yul\":4118:4236   */\n      pop\n        /* \"#utility.yul\":4303:4306   */\n      0x80\n        /* \"#utility.yul\":4292:4301   */\n      dup7\n        /* \"#utility.yul\":4288:4307   */\n      add\n        /* \"#utility.yul\":4275:4308   */\n      calldataload\n        /* \"#utility.yul\":4335:4353   */\n      0xffffffffffffffff\n        /* \"#utility.yul\":4327:4333   */\n      dup2\n        /* \"#utility.yul\":4324:4354   */\n      gt\n        /* \"#utility.yul\":4321:4438   */\n      iszero\n      tag_133\n      jumpi\n        /* \"#utility.yul\":4357:4436   */\n      tag_134\n      tag_56\n      jump\t// in\n    tag_134:\n        /* \"#utility.yul\":4321:4438   */\n    tag_133:\n        /* \"#utility.yul\":4462:4525   */\n      tag_135\n        /* \"#utility.yul\":4517:4524   */\n      dup9\n        /* \"#utility.yul\":4508:4514   */\n      dup3\n        /* \"#utility.yul\":4497:4506   */\n      dup10\n        /* \"#utility.yul\":4493:4515   */\n      add\n        /* \"#utility.yul\":4462:4525   */\n      tag_66\n      jump\t// in\n    tag_135:\n        /* \"#utility.yul\":4452:4525   */\n      swap2\n      pop\n        /* \"#utility.yul\":4246:4535   */\n      pop\n        /* \"#utility.yul\":2911:4542   */\n      swap3\n      swap6\n      pop\n      swap3\n      swap6\n      swap1\n      swap4\n      pop\n      jump\t// out\n        /* \"#utility.yul\":4548:5853   */\n    tag_14:\n        /* \"#utility.yul\":4664:4670   */\n      0x00\n        /* \"#utility.yul\":4672:4678   */\n      0x00\n        /* \"#utility.yul\":4680:4686   */\n      0x00\n        /* \"#utility.yul\":4688:4694   */\n      0x00\n        /* \"#utility.yul\":4737:4740   */\n      0x80\n        /* \"#utility.yul\":4725:4734   */\n      dup6\n        /* \"#utility.yul\":4716:4723   */\n      dup8\n        /* \"#utility.yul\":4712:4735   */\n      sub\n        /* \"#utility.yul\":4708:4741   */\n      slt\n        /* \"#utility.yul\":4705:4825   */\n      iszero\n      tag_137\n      jumpi\n        /* \"#utility.yul\":4744:4823   */\n      tag_138\n      tag_55\n      jump\t// in\n    tag_138:\n        /* \"#utility.yul\":4705:4825   */\n    tag_137:\n        /* \"#utility.yul\":4892:4893   */\n      0x00\n        /* \"#utility.yul\":4881:4890   */\n      dup6\n        /* \"#utility.yul\":4877:4894   */\n      add\n        /* \"#utility.yul\":4864:4895   */\n      calldataload\n        /* \"#utility.yul\":4922:4940   */\n      0xffffffffffffffff\n        /* \"#utility.yul\":4914:4920   */\n      dup2\n        /* \"#utility.yul\":4911:4941   */\n      gt\n        /* \"#utility.yul\":4908:5025   */\n      iszero\n      tag_139\n      jumpi\n        /* \"#utility.yul\":4944:5023   */\n      tag_140\n      tag_56\n      jump\t// in\n    tag_140:\n        /* \"#utility.yul\":4908:5025   */\n    tag_139:\n        /* \"#utility.yul\":5049:5112   */\n      tag_141\n        /* \"#utility.yul\":5104:5111   */\n      dup8\n        /* \"#utility.yul\":5095:5101   */\n      dup3\n        /* \"#utility.yul\":5084:5093   */\n      dup9\n        /* \"#utility.yul\":5080:5102   */\n      add\n        /* \"#utility.yul\":5049:5112   */\n      tag_66\n      jump\t// in\n    tag_141:\n        /* \"#utility.yul\":5039:5112   */\n      swap5\n      pop\n        /* \"#utility.yul\":4835:5122   */\n      pop\n        /* \"#utility.yul\":5189:5191   */\n      0x20\n        /* \"#utility.yul\":5178:5187   */\n      dup6\n        /* \"#utility.yul\":5174:5192   */\n      add\n        /* \"#utility.yul\":5161:5193   */\n      calldataload\n        /* \"#utility.yul\":5220:5238   */\n      0xffffffffffffffff\n        /* \"#utility.yul\":5212:5218   */\n      dup2\n        /* \"#utility.yul\":5209:5239   */\n      gt\n        /* \"#utility.yul\":5206:5323   */\n      iszero\n      tag_142\n      jumpi\n        /* \"#utility.yul\":5242:5321   */\n      tag_143\n      tag_56\n      jump\t// in\n    tag_143:\n        /* \"#utility.yul\":5206:5323   */\n    tag_142:\n        /* \"#utility.yul\":5347:5410   */\n      tag_144\n        /* \"#utility.yul\":5402:5409   */\n      dup8\n        /* \"#utility.yul\":5393:5399   */\n      dup3\n        /* \"#utility.yul\":5382:5391   */\n      dup9\n        /* \"#utility.yul\":5378:5400   */\n      add\n        /* \"#utility.yul\":5347:5410   */\n      tag_66\n      jump\t// in\n    tag_144:\n        /* \"#utility.yul\":5337:5410   */\n      swap4\n      pop\n        /* \"#utility.yul\":5132:5420   */\n      pop\n        /* \"#utility.yul\":5459:5461   */\n      0x40\n        /* \"#utility.yul\":5485:5538   */\n      tag_145\n        /* \"#utility.yul\":5530:5537   */\n      dup8\n        /* \"#utility.yul\":5521:5527   */\n      dup3\n        /* \"#utility.yul\":5510:5519   */\n      dup9\n        /* \"#utility.yul\":5506:5528   */\n      add\n        /* \"#utility.yul\":5485:5538   */\n      tag_69\n      jump\t// in\n    tag_145:\n        /* \"#utility.yul\":5475:5538   */\n      swap3\n      pop\n        /* \"#utility.yul\":5430:5548   */\n      pop\n        /* \"#utility.yul\":5615:5617   */\n      0x60\n        /* \"#utility.yul\":5604:5613   */\n      dup6\n        /* \"#utility.yul\":5600:5618   */\n      add\n        /* \"#utility.yul\":5587:5619   */\n      calldataload\n        /* \"#utility.yul\":5646:5664   */\n      0xffffffffffffffff\n        /* \"#utility.yul\":5638:5644   */\n      dup2\n        /* \"#utility.yul\":5635:5665   */\n      gt\n        /* \"#utility.yul\":5632:5749   */\n      iszero\n      tag_146\n      jumpi\n        /* \"#utility.yul\":5668:5747   */\n      tag_147\n      tag_56\n      jump\t// in\n    tag_147:\n        /* \"#utility.yul\":5632:5749   */\n    tag_146:\n        /* \"#utility.yul\":5773:5836   */\n      tag_148\n        /* \"#utility.yul\":5828:5835   */\n      dup8\n        /* \"#utility.yul\":5819:5825   */\n      dup3\n        /* \"#utility.yul\":5808:5817   */\n      dup9\n        /* \"#utility.yul\":5804:5826   */\n      add\n        /* \"#utility.yul\":5773:5836   */\n      tag_66\n      jump\t// in\n    tag_148:\n        /* \"#utility.yul\":5763:5836   */\n      swap2\n      pop\n        /* \"#utility.yul\":5558:5846   */\n      pop\n        /* \"#utility.yul\":4548:5853   */\n      swap3\n      swap6\n      swap2\n      swap5\n      pop\n      swap3\n      pop\n      jump\t// out\n        /* \"#utility.yul\":5859:5985   */\n    tag_70:\n        /* \"#utility.yul\":5896:5903   */\n      0x00\n        /* \"#utility.yul\":5936:5978   */\n      0xffffffffffffffffffffffffffffffffffffffff\n        /* \"#utility.yul\":5929:5934   */\n      dup3\n        /* \"#utility.yul\":5925:5979   */\n      and\n        /* \"#utility.yul\":5914:5979   */\n      swap1\n      pop\n        /* \"#utility.yul\":5859:5985   */\n      swap2\n      swap1\n      pop\n      jump\t// out\n        /* \"#utility.yul\":5991:6087   */\n    tag_71:\n        /* \"#utility.yul\":6028:6035   */\n      0x00\n        /* \"#utility.yul\":6057:6081   */\n      tag_151\n        /* \"#utility.yul\":6075:6080   */\n      dup3\n        /* \"#utility.yul\":6057:6081   */\n      tag_70\n      jump\t// in\n    tag_151:\n        /* \"#utility.yul\":6046:6081   */\n      swap1\n      pop\n        /* \"#utility.yul\":5991:6087   */\n      swap2\n      swap1\n      pop\n      jump\t// out\n        /* \"#utility.yul\":6093:6211   */\n    tag_72:\n        /* \"#utility.yul\":6180:6204   */\n      tag_153\n        /* \"#utility.yul\":6198:6203   */\n      dup2\n        /* \"#utility.yul\":6180:6204   */\n      tag_71\n      jump\t// in\n    tag_153:\n        /* \"#utility.yul\":6175:6178   */\n      dup3\n        /* \"#utility.yul\":6168:6205   */\n      mstore\n        /* \"#utility.yul\":6093:6211   */\n      pop\n      pop\n      jump\t// out\n        /* \"#utility.yul\":6217:6439   */\n    tag_19:\n        /* \"#utility.yul\":6310:6314   */\n      0x00\n        /* \"#utility.yul\":6348:6350   */\n      0x20\n        /* \"#utility.yul\":6337:6346   */\n      dup3\n        /* \"#utility.yul\":6333:6351   */\n      add\n        /* \"#utility.yul\":6325:6351   */\n      swap1\n      pop\n        /* \"#utility.yul\":6361:6432   */\n      tag_155\n        /* \"#utility.yul\":6429:6430   */\n      0x00\n        /* \"#utility.yul\":6418:6427   */\n      dup4\n        /* \"#utility.yul\":6414:6431   */\n      add\n        /* \"#utility.yul\":6405:6411   */\n      dup5\n        /* \"#utility.yul\":6361:6432   */\n      tag_72\n      jump\t// in\n    tag_155:\n        /* \"#utility.yul\":6217:6439   */\n      swap3\n      swap2\n      pop\n      pop\n      jump\t// out\n        /* \"#utility.yul\":6445:7279   */\n    tag_22:\n        /* \"#utility.yul\":6533:6539   */\n      0x00\n        /* \"#utility.yul\":6541:6547   */\n      0x00\n        /* \"#utility.yul\":6590:6592   */\n      0x40\n        /* \"#utility.yul\":6578:6587   */\n      dup4\n        /* \"#utility.yul\":6569:6576   */\n      dup6\n        /* \"#utility.yul\":6565:6588   */\n      sub\n        /* \"#utility.yul\":6561:6593   */\n      slt\n        /* \"#utility.yul\":6558:6677   */\n      iszero\n      tag_157\n      jumpi\n        /* \"#utility.yul\":6596:6675   */\n      tag_158\n      tag_55\n      jump\t// in\n    tag_158:\n        /* \"#utility.yul\":6558:6677   */\n    tag_157:\n        /* \"#utility.yul\":6744:6745   */\n      0x00\n        /* \"#utility.yul\":6733:6742   */\n      dup4\n        /* \"#utility.yul\":6729:6746   */\n      add\n        /* \"#utility.yul\":6716:6747   */\n      calldataload\n        /* \"#utility.yul\":6774:6792   */\n      0xffffffffffffffff\n        /* \"#utility.yul\":6766:6772   */\n      dup2\n        /* \"#utility.yul\":6763:6793   */\n      gt\n        /* \"#utility.yul\":6760:6877   */\n      iszero\n      tag_159\n      jumpi\n        /* \"#utility.yul\":6796:6875   */\n      tag_160\n      tag_56\n      jump\t// in\n    tag_160:\n        /* \"#utility.yul\":6760:6877   */\n    tag_159:\n        /* \"#utility.yul\":6901:6964   */\n      tag_161\n        /* \"#utility.yul\":6956:6963   */\n      dup6\n        /* \"#utility.yul\":6947:6953   */\n      dup3\n        /* \"#utility.yul\":6936:6945   */\n      dup7\n        /* \"#utility.yul\":6932:6954   */\n      add\n        /* \"#utility.yul\":6901:6964   */\n      tag_66\n      jump\t// in\n    tag_161:\n        /* \"#utility.yul\":6891:6964   */\n      swap3\n      pop\n        /* \"#utility.yul\":6687:6974   */\n      pop\n        /* \"#utility.yul\":7041:7043   */\n      0x20\n        /* \"#utility.yul\":7030:7039   */\n      dup4\n        /* \"#utility.yul\":7026:7044   */\n      add\n        /* \"#utility.yul\":7013:7045   */\n      calldataload\n        /* \"#utility.yul\":7072:7090   */\n      0xffffffffffffffff\n        /* \"#utility.yul\":7064:7070   */\n      dup2\n        /* \"#utility.yul\":7061:7091   */\n      gt\n        /* \"#utility.yul\":7058:7175   */\n      iszero\n      tag_162\n      jumpi\n        /* \"#utility.yul\":7094:7173   */\n      tag_163\n      tag_56\n      jump\t// in\n    tag_163:\n        /* \"#utility.yul\":7058:7175   */\n    tag_162:\n        /* \"#utility.yul\":7199:7262   */\n      tag_164\n        /* \"#utility.yul\":7254:7261   */\n      dup6\n        /* \"#utility.yul\":7245:7251   */\n      dup3\n        /* \"#utility.yul\":7234:7243   */\n      dup7\n        /* \"#utility.yul\":7230:7252   */\n      add\n        /* \"#utility.yul\":7199:7262   */\n      tag_66\n      jump\t// in\n    tag_164:\n        /* \"#utility.yul\":7189:7262   */\n      swap2\n      pop\n        /* \"#utility.yul\":6984:7272   */\n      pop\n        /* \"#utility.yul\":6445:7279   */\n      swap3\n      pop\n      swap3\n      swap1\n      pop\n      jump\t// out\n        /* \"#utility.yul\":7285:7407   */\n    tag_73:\n        /* \"#utility.yul\":7358:7382   */\n      tag_166\n        /* \"#utility.yul\":7376:7381   */\n      dup2\n        /* \"#utility.yul\":7358:7382   */\n      tag_71\n      jump\t// in\n    tag_166:\n        /* \"#utility.yul\":7351:7356   */\n      dup2\n        /* \"#utility.yul\":7348:7383   */\n      eq\n        /* \"#utility.yul\":7338:7401   */\n      tag_167\n      jumpi\n        /* \"#utility.yul\":7397:7398   */\n      0x00\n        /* \"#utility.yul\":7394:7395   */\n      0x00\n        /* \"#utility.yul\":7387:7399   */\n      revert\n        /* \"#utility.yul\":7338:7401   */\n    tag_167:\n        /* \"#utility.yul\":7285:7407   */\n      pop\n      jump\t// out\n        /* \"#utility.yul\":7413:7552   */\n    tag_74:\n        /* \"#utility.yul\":7459:7464   */\n      0x00\n        /* \"#utility.yul\":7497:7503   */\n      dup2\n        /* \"#utility.yul\":7484:7504   */\n      calldataload\n        /* \"#utility.yul\":7475:7504   */\n      swap1\n      pop\n        /* \"#utility.yul\":7513:7546   */\n      tag_169\n        /* \"#utility.yul\":7540:7545   */\n      dup2\n        /* \"#utility.yul\":7513:7546   */\n      tag_73\n      jump\t// in\n    tag_169:\n        /* \"#utility.yul\":7413:7552   */\n      swap3\n      swap2\n      pop\n      pop\n      jump\t// out\n        /* \"#utility.yul\":7558:7887   */\n    tag_26:\n        /* \"#utility.yul\":7617:7623   */\n      0x00\n        /* \"#utility.yul\":7666:7668   */\n      0x20\n        /* \"#utility.yul\":7654:7663   */\n      dup3\n        /* \"#utility.yul\":7645:7652   */\n      dup5\n        /* \"#utility.yul\":7641:7664   */\n      sub\n        /* \"#utility.yul\":7637:7669   */\n      slt\n        /* \"#utility.yul\":7634:7753   */\n      iszero\n      tag_171\n      jumpi\n        /* \"#utility.yul\":7672:7751   */\n      tag_172\n      tag_55\n      jump\t// in\n    tag_172:\n        /* \"#utility.yul\":7634:7753   */\n    tag_171:\n        /* \"#utility.yul\":7792:7793   */\n      0x00\n        /* \"#utility.yul\":7817:7870   */\n      tag_173\n        /* \"#utility.yul\":7862:7869   */\n      dup5\n        /* \"#utility.yul\":7853:7859   */\n      dup3\n        /* \"#utility.yul\":7842:7851   */\n      dup6\n        /* \"#utility.yul\":7838:7860   */\n      add\n        /* \"#utility.yul\":7817:7870   */\n      tag_74\n      jump\t// in\n    tag_173:\n        /* \"#utility.yul\":7807:7870   */\n      swap2\n      pop\n        /* \"#utility.yul\":7763:7880   */\n      pop\n        /* \"#utility.yul\":7558:7887   */\n      swap3\n      swap2\n      pop\n      pop\n      jump\t// out\n        /* \"#utility.yul\":7893:8062   */\n    tag_75:\n        /* \"#utility.yul\":7977:7988   */\n      0x00\n        /* \"#utility.yul\":8011:8017   */\n      dup3\n        /* \"#utility.yul\":8006:8009   */\n      dup3\n        /* \"#utility.yul\":7999:8018   */\n      mstore\n        /* \"#utility.yul\":8051:8055   */\n      0x20\n        /* \"#utility.yul\":8046:8049   */\n      dup3\n        /* \"#utility.yul\":8042:8056   */\n      add\n        /* \"#utility.yul\":8027:8056   */\n      swap1\n      pop\n        /* \"#utility.yul\":7893:8062   */\n      swap3\n      swap2\n      pop\n      pop\n      jump\t// out\n        /* \"#utility.yul\":8068:8232   */\n    tag_76:\n        /* \"#utility.yul\":8208:8224   */\n      0x4e6f7420617574686f72697a6564000000000000000000000000000000000000\n        /* \"#utility.yul\":8204:8205   */\n      0x00\n        /* \"#utility.yul\":8196:8202   */\n      dup3\n        /* \"#utility.yul\":8192:8206   */\n      add\n        /* \"#utility.yul\":8185:8225   */\n      mstore\n        /* \"#utility.yul\":8068:8232   */\n      pop\n      jump\t// out\n        /* \"#utility.yul\":8238:8604   */\n    tag_77:\n        /* \"#utility.yul\":8380:8383   */\n      0x00\n        /* \"#utility.yul\":8401:8468   */\n      tag_177\n        /* \"#utility.yul\":8465:8467   */\n      0x0e\n        /* \"#utility.yul\":8460:8463   */\n      dup4\n        /* \"#utility.yul\":8401:8468   */\n      tag_75\n      jump\t// in\n    tag_177:\n        /* \"#utility.yul\":8394:8468   */\n      swap2\n      pop\n        /* \"#utility.yul\":8477:8570   */\n      tag_178\n        /* \"#utility.yul\":8566:8569   */\n      dup3\n        /* \"#utility.yul\":8477:8570   */\n      tag_76\n      jump\t// in\n    tag_178:\n        /* \"#utility.yul\":8595:8597   */\n      0x20\n        /* \"#utility.yul\":8590:8593   */\n      dup3\n        /* \"#utility.yul\":8586:8598   */\n      add\n        /* \"#utility.yul\":8579:8598   */\n      swap1\n      pop\n        /* \"#utility.yul\":8238:8604   */\n      swap2\n      swap1\n      pop\n      jump\t// out\n        /* \"#utility.yul\":8610:9029   */\n    tag_31:\n        /* \"#utility.yul\":8776:8780   */\n      0x00\n        /* \"#utility.yul\":8814:8816   */\n      0x20\n        /* \"#utility.yul\":8803:8812   */\n      dup3\n        /* \"#utility.yul\":8799:8817   */\n      add\n        /* \"#utility.yul\":8791:8817   */\n      swap1\n      pop\n        /* \"#utility.yul\":8863:8872   */\n      dup2\n        /* \"#utility.yul\":8857:8861   */\n      dup2\n        /* \"#utility.yul\":8853:8873   */\n      sub\n        /* \"#utility.yul\":8849:8850   */\n      0x00\n        /* \"#utility.yul\":8838:8847   */\n      dup4\n        /* \"#utility.yul\":8834:8851   */\n      add\n        /* \"#utility.yul\":8827:8874   */\n      mstore\n        /* \"#utility.yul\":8891:9022   */\n      tag_180\n        /* \"#utility.yul\":9017:9021   */\n      dup2\n        /* \"#utility.yul\":8891:9022   */\n      tag_77\n      jump\t// in\n    tag_180:\n        /* \"#utility.yul\":8883:9022   */\n      swap1\n      pop\n        /* \"#utility.yul\":8610:9029   */\n      swap2\n      swap1\n      pop\n      jump\t// out\n        /* \"#utility.yul\":9035:9134   */\n    tag_78:\n        /* \"#utility.yul\":9087:9093   */\n      0x00\n        /* \"#utility.yul\":9121:9126   */\n      dup2\n        /* \"#utility.yul\":9115:9127   */\n      mload\n        /* \"#utility.yul\":9105:9127   */\n      swap1\n      pop\n        /* \"#utility.yul\":9035:9134   */\n      swap2\n      swap1\n      pop\n      jump\t// out\n        /* \"#utility.yul\":9140:9279   */\n    tag_79:\n        /* \"#utility.yul\":9229:9235   */\n      dup3\n        /* \"#utility.yul\":9224:9227   */\n      dup2\n        /* \"#utility.yul\":9219:9222   */\n      dup4\n        /* \"#utility.yul\":9213:9236   */\n      mcopy\n        /* \"#utility.yul\":9270:9271   */\n      0x00\n        /* \"#utility.yul\":9261:9267   */\n      dup4\n        /* \"#utility.yul\":9256:9259   */\n      dup4\n        /* \"#utility.yul\":9252:9268   */\n      add\n        /* \"#utility.yul\":9245:9272   */\n      mstore\n        /* \"#utility.yul\":9140:9279   */\n      pop\n      pop\n      pop\n      jump\t// out\n        /* \"#utility.yul\":9285:9662   */\n    tag_80:\n        /* \"#utility.yul\":9373:9376   */\n      0x00\n        /* \"#utility.yul\":9401:9440   */\n      tag_184\n        /* \"#utility.yul\":9434:9439   */\n      dup3\n        /* \"#utility.yul\":9401:9440   */\n      tag_78\n      jump\t// in\n    tag_184:\n        /* \"#utility.yul\":9456:9527   */\n      tag_185\n        /* \"#utility.yul\":9520:9526   */\n      dup2\n        /* \"#utility.yul\":9515:9518   */\n      dup6\n        /* \"#utility.yul\":9456:9527   */\n      tag_75\n      jump\t// in\n    tag_185:\n        /* \"#utility.yul\":9449:9527   */\n      swap4\n      pop\n        /* \"#utility.yul\":9536:9601   */\n      tag_186\n        /* \"#utility.yul\":9594:9600   */\n      dup2\n        /* \"#utility.yul\":9589:9592   */\n      dup6\n        /* \"#utility.yul\":9582:9586   */\n      0x20\n        /* \"#utility.yul\":9575:9580   */\n      dup7\n        /* \"#utility.yul\":9571:9587   */\n      add\n        /* \"#utility.yul\":9536:9601   */\n      tag_79\n      jump\t// in\n    tag_186:\n        /* \"#utility.yul\":9626:9655   */\n      tag_187\n        /* \"#utility.yul\":9648:9654   */\n      dup2\n        /* \"#utility.yul\":9626:9655   */\n      tag_59\n      jump\t// in\n    tag_187:\n        /* \"#utility.yul\":9621:9624   */\n      dup5\n        /* \"#utility.yul\":9617:9656   */\n      add\n        /* \"#utility.yul\":9610:9656   */\n      swap2\n      pop\n        /* \"#utility.yul\":9377:9662   */\n      pop\n        /* \"#utility.yul\":9285:9662   */\n      swap3\n      swap2\n      pop\n      pop\n      jump\t// out\n        /* \"#utility.yul\":9668:9786   */\n    tag_81:\n        /* \"#utility.yul\":9755:9779   */\n      tag_189\n        /* \"#utility.yul\":9773:9778   */\n      dup2\n        /* \"#utility.yul\":9755:9779   */\n      tag_67\n      jump\t// in\n    tag_189:\n        /* \"#utility.yul\":9750:9753   */\n      dup3\n        /* \"#utility.yul\":9743:9780   */\n      mstore\n        /* \"#utility.yul\":9668:9786   */\n      pop\n      pop\n      jump\t// out\n        /* \"#utility.yul\":9792:10931   */\n    tag_34:\n        /* \"#utility.yul\":10105:10109   */\n      0x00\n        /* \"#utility.yul\":10143:10146   */\n      0xc0\n        /* \"#utility.yul\":10132:10141   */\n      dup3\n        /* \"#utility.yul\":10128:10147   */\n      add\n        /* \"#utility.yul\":10120:10147   */\n      swap1\n      pop\n        /* \"#utility.yul\":10193:10202   */\n      dup2\n        /* \"#utility.yul\":10187:10191   */\n      dup2\n        /* \"#utility.yul\":10183:10203   */\n      sub\n        /* \"#utility.yul\":10179:10180   */\n      0x00\n        /* \"#utility.yul\":10168:10177   */\n      dup4\n        /* \"#utility.yul\":10164:10181   */\n      add\n        /* \"#utility.yul\":10157:10204   */\n      mstore\n        /* \"#utility.yul\":10221:10299   */\n      tag_191\n        /* \"#utility.yul\":10294:10298   */\n      dup2\n        /* \"#utility.yul\":10285:10291   */\n      dup10\n        /* \"#utility.yul\":10221:10299   */\n      tag_80\n      jump\t// in\n    tag_191:\n        /* \"#utility.yul\":10213:10299   */\n      swap1\n      pop\n        /* \"#utility.yul\":10346:10355   */\n      dup2\n        /* \"#utility.yul\":10340:10344   */\n      dup2\n        /* \"#utility.yul\":10336:10356   */\n      sub\n        /* \"#utility.yul\":10331:10333   */\n      0x20\n        /* \"#utility.yul\":10320:10329   */\n      dup4\n        /* \"#utility.yul\":10316:10334   */\n      add\n        /* \"#utility.yul\":10309:10357   */\n      mstore\n        /* \"#utility.yul\":10374:10452   */\n      tag_192\n        /* \"#utility.yul\":10447:10451   */\n      dup2\n        /* \"#utility.yul\":10438:10444   */\n      dup9\n        /* \"#utility.yul\":10374:10452   */\n      tag_80\n      jump\t// in\n    tag_192:\n        /* \"#utility.yul\":10366:10452   */\n      swap1\n      pop\n        /* \"#utility.yul\":10499:10508   */\n      dup2\n        /* \"#utility.yul\":10493:10497   */\n      dup2\n        /* \"#utility.yul\":10489:10509   */\n      sub\n        /* \"#utility.yul\":10484:10486   */\n      0x40\n        /* \"#utility.yul\":10473:10482   */\n      dup4\n        /* \"#utility.yul\":10469:10487   */\n      add\n        /* \"#utility.yul\":10462:10510   */\n      mstore\n        /* \"#utility.yul\":10527:10605   */\n      tag_193\n        /* \"#utility.yul\":10600:10604   */\n      dup2\n        /* \"#utility.yul\":10591:10597   */\n      dup8\n        /* \"#utility.yul\":10527:10605   */\n      tag_80\n      jump\t// in\n    tag_193:\n        /* \"#utility.yul\":10519:10605   */\n      swap1\n      pop\n        /* \"#utility.yul\":10615:10687   */\n      tag_194\n        /* \"#utility.yul\":10683:10685   */\n      0x60\n        /* \"#utility.yul\":10672:10681   */\n      dup4\n        /* \"#utility.yul\":10668:10686   */\n      add\n        /* \"#utility.yul\":10659:10665   */\n      dup7\n        /* \"#utility.yul\":10615:10687   */\n      tag_81\n      jump\t// in\n    tag_194:\n        /* \"#utility.yul\":10735:10744   */\n      dup2\n        /* \"#utility.yul\":10729:10733   */\n      dup2\n        /* \"#utility.yul\":10725:10745   */\n      sub\n        /* \"#utility.yul\":10719:10722   */\n      0x80\n        /* \"#utility.yul\":10708:10717   */\n      dup4\n        /* \"#utility.yul\":10704:10723   */\n      add\n        /* \"#utility.yul\":10697:10746   */\n      mstore\n        /* \"#utility.yul\":10763:10841   */\n      tag_195\n        /* \"#utility.yul\":10836:10840   */\n      dup2\n        /* \"#utility.yul\":10827:10833   */\n      dup6\n        /* \"#utility.yul\":10763:10841   */\n      tag_80\n      jump\t// in\n    tag_195:\n        /* \"#utility.yul\":10755:10841   */\n      swap1\n      pop\n        /* \"#utility.yul\":10851:10924   */\n      tag_196\n        /* \"#utility.yul\":10919:10922   */\n      0xa0\n        /* \"#utility.yul\":10908:10917   */\n      dup4\n        /* \"#utility.yul\":10904:10923   */\n      add\n        /* \"#utility.yul\":10895:10901   */\n      dup5\n        /* \"#utility.yul\":10851:10924   */\n      tag_81\n      jump\t// in\n    tag_196:\n        /* \"#utility.yul\":9792:10931   */\n      swap8\n      swap7\n      pop\n      pop\n      pop\n      pop\n      pop\n      pop\n      pop\n      jump\t// out\n        /* \"#utility.yul\":10937:11874   */\n    tag_40:\n        /* \"#utility.yul\":11202:11206   */\n      0x00\n        /* \"#utility.yul\":11240:11243   */\n      0xa0\n        /* \"#utility.yul\":11229:11238   */\n      dup3\n        /* \"#utility.yul\":11225:11244   */\n      add\n        /* \"#utility.yul\":11217:11244   */\n      swap1\n      pop\n        /* \"#utility.yul\":11290:11299   */\n      dup2\n        /* \"#utility.yul\":11284:11288   */\n      dup2\n        /* \"#utility.yul\":11280:11300   */\n      sub\n        /* \"#utility.yul\":11276:11277   */\n      0x00\n        /* \"#utility.yul\":11265:11274   */\n      dup4\n        /* \"#utility.yul\":11261:11278   */\n      add\n        /* \"#utility.yul\":11254:11301   */\n      mstore\n        /* \"#utility.yul\":11318:11396   */\n      tag_198\n        /* \"#utility.yul\":11391:11395   */\n      dup2\n        /* \"#utility.yul\":11382:11388   */\n      dup9\n        /* \"#utility.yul\":11318:11396   */\n      tag_80\n      jump\t// in\n    tag_198:\n        /* \"#utility.yul\":11310:11396   */\n      swap1\n      pop\n        /* \"#utility.yul\":11443:11452   */\n      dup2\n        /* \"#utility.yul\":11437:11441   */\n      dup2\n        /* \"#utility.yul\":11433:11453   */\n      sub\n        /* \"#utility.yul\":11428:11430   */\n      0x20\n        /* \"#utility.yul\":11417:11426   */\n      dup4\n        /* \"#utility.yul\":11413:11431   */\n      add\n        /* \"#utility.yul\":11406:11454   */\n      mstore\n        /* \"#utility.yul\":11471:11549   */\n      tag_199\n        /* \"#utility.yul\":11544:11548   */\n      dup2\n        /* \"#utility.yul\":11535:11541   */\n      dup8\n        /* \"#utility.yul\":11471:11549   */\n      tag_80\n      jump\t// in\n    tag_199:\n        /* \"#utility.yul\":11463:11549   */\n      swap1\n      pop\n        /* \"#utility.yul\":11559:11631   */\n      tag_200\n        /* \"#utility.yul\":11627:11629   */\n      0x40\n        /* \"#utility.yul\":11616:11625   */\n      dup4\n        /* \"#utility.yul\":11612:11630   */\n      add\n        /* \"#utility.yul\":11603:11609   */\n      dup7\n        /* \"#utility.yul\":11559:11631   */\n      tag_81\n      jump\t// in\n    tag_200:\n        /* \"#utility.yul\":11678:11687   */\n      dup2\n        /* \"#utility.yul\":11672:11676   */\n      dup2\n        /* \"#utility.yul\":11668:11688   */\n      sub\n        /* \"#utility.yul\":11663:11665   */\n      0x60\n        /* \"#utility.yul\":11652:11661   */\n      dup4\n        /* \"#utility.yul\":11648:11666   */\n      add\n        /* \"#utility.yul\":11641:11689   */\n      mstore\n        /* \"#utility.yul\":11706:11784   */\n      tag_201\n        /* \"#utility.yul\":11779:11783   */\n      dup2\n        /* \"#utility.yul\":11770:11776   */\n      dup6\n        /* \"#utility.yul\":11706:11784   */\n      tag_80\n      jump\t// in\n    tag_201:\n        /* \"#utility.yul\":11698:11784   */\n      swap1\n      pop\n        /* \"#utility.yul\":11794:11867   */\n      tag_202\n        /* \"#utility.yul\":11862:11865   */\n      0x80\n        /* \"#utility.yul\":11851:11860   */\n      dup4\n        /* \"#utility.yul\":11847:11866   */\n      add\n        /* \"#utility.yul\":11838:11844   */\n      dup5\n        /* \"#utility.yul\":11794:11867   */\n      tag_81\n      jump\t// in\n    tag_202:\n        /* \"#utility.yul\":10937:11874   */\n      swap7\n      swap6\n      pop\n      pop\n      pop\n      pop\n      pop\n      pop\n      jump\t// out\n        /* \"#utility.yul\":11880:12504   */\n    tag_46:\n        /* \"#utility.yul\":12069:12073   */\n      0x00\n        /* \"#utility.yul\":12107:12109   */\n      0x60\n        /* \"#utility.yul\":12096:12105   */\n      dup3\n        /* \"#utility.yul\":12092:12110   */\n      add\n        /* \"#utility.yul\":12084:12110   */\n      swap1\n      pop\n        /* \"#utility.yul\":12156:12165   */\n      dup2\n        /* \"#utility.yul\":12150:12154   */\n      dup2\n        /* \"#utility.yul\":12146:12166   */\n      sub\n        /* \"#utility.yul\":12142:12143   */\n      0x00\n        /* \"#utility.yul\":12131:12140   */\n      dup4\n        /* \"#utility.yul\":12127:12144   */\n      add\n        /* \"#utility.yul\":12120:12167   */\n      mstore\n        /* \"#utility.yul\":12184:12262   */\n      tag_204\n        /* \"#utility.yul\":12257:12261   */\n      dup2\n        /* \"#utility.yul\":12248:12254   */\n      dup7\n        /* \"#utility.yul\":12184:12262   */\n      tag_80\n      jump\t// in\n    tag_204:\n        /* \"#utility.yul\":12176:12262   */\n      swap1\n      pop\n        /* \"#utility.yul\":12309:12318   */\n      dup2\n        /* \"#utility.yul\":12303:12307   */\n      dup2\n        /* \"#utility.yul\":12299:12319   */\n      sub\n        /* \"#utility.yul\":12294:12296   */\n      0x20\n        /* \"#utility.yul\":12283:12292   */\n      dup4\n        /* \"#utility.yul\":12279:12297   */\n      add\n        /* \"#utility.yul\":12272:12320   */\n      mstore\n        /* \"#utility.yul\":12337:12415   */\n      tag_205\n        /* \"#utility.yul\":12410:12414   */\n      dup2\n        /* \"#utility.yul\":12401:12407   */\n      dup6\n        /* \"#utility.yul\":12337:12415   */\n      tag_80\n      jump\t// in\n    tag_205:\n        /* \"#utility.yul\":12329:12415   */\n      swap1\n      pop\n        /* \"#utility.yul\":12425:12497   */\n      tag_206\n        /* \"#utility.yul\":12493:12495   */\n      0x40\n        /* \"#utility.yul\":12482:12491   */\n      dup4\n        /* \"#utility.yul\":12478:12496   */\n      add\n        /* \"#utility.yul\":12469:12475   */\n      dup5\n        /* \"#utility.yul\":12425:12497   */\n      tag_81\n      jump\t// in\n    tag_206:\n        /* \"#utility.yul\":11880:12504   */\n      swap5\n      swap4\n      pop\n      pop\n      pop\n      pop\n      jump\t// out\n        /* \"#utility.yul\":12510:12675   */\n    tag_82:\n        /* \"#utility.yul\":12650:12667   */\n      0x496e76616c696420616464726573730000000000000000000000000000000000\n        /* \"#utility.yul\":12646:12647   */\n      0x00\n        /* \"#utility.yul\":12638:12644   */\n      dup3\n        /* \"#utility.yul\":12634:12648   */\n      add\n        /* \"#utility.yul\":12627:12668   */\n      mstore\n        /* \"#utility.yul\":12510:12675   */\n      pop\n      jump\t// out\n        /* \"#utility.yul\":12681:13047   */\n    tag_83:\n        /* \"#utility.yul\":12823:12826   */\n      0x00\n        /* \"#utility.yul\":12844:12911   */\n      tag_209\n        /* \"#utility.yul\":12908:12910   */\n      0x0f\n        /* \"#utility.yul\":12903:12906   */\n      dup4\n        /* \"#utility.yul\":12844:12911   */\n      tag_75\n      jump\t// in\n    tag_209:\n        /* \"#utility.yul\":12837:12911   */\n      swap2\n      pop\n        /* \"#utility.yul\":12920:13013   */\n      tag_210\n        /* \"#utility.yul\":13009:13012   */\n      dup3\n        /* \"#utility.yul\":12920:13013   */\n      tag_82\n      jump\t// in\n    tag_210:\n        /* \"#utility.yul\":13038:13040   */\n      0x20\n        /* \"#utility.yul\":13033:13036   */\n      dup3\n        /* \"#utility.yul\":13029:13041   */\n      add\n        /* \"#utility.yul\":13022:13041   */\n      swap1\n      pop\n        /* \"#utility.yul\":12681:13047   */\n      swap2\n      swap1\n      pop\n      jump\t// out\n        /* \"#utility.yul\":13053:13472   */\n    tag_53:\n        /* \"#utility.yul\":13219:13223   */\n      0x00\n        /* \"#utility.yul\":13257:13259   */\n      0x20\n        /* \"#utility.yul\":13246:13255   */\n      dup3\n        /* \"#utility.yul\":13242:13260   */\n      add\n        /* \"#utility.yul\":13234:13260   */\n      swap1\n      pop\n        /* \"#utility.yul\":13306:13315   */\n      dup2\n        /* \"#utility.yul\":13300:13304   */\n      dup2\n        /* \"#utility.yul\":13296:13316   */\n      sub\n        /* \"#utility.yul\":13292:13293   */\n      0x00\n        /* \"#utility.yul\":13281:13290   */\n      dup4\n        /* \"#utility.yul\":13277:13294   */\n      add\n        /* \"#utility.yul\":13270:13317   */\n      mstore\n        /* \"#utility.yul\":13334:13465   */\n      tag_212\n        /* \"#utility.yul\":13460:13464   */\n      dup2\n        /* \"#utility.yul\":13334:13465   */\n      tag_83\n      jump\t// in\n    tag_212:\n        /* \"#utility.yul\":13326:13465   */\n      swap1\n      pop\n        /* \"#utility.yul\":13053:13472   */\n      swap2\n      swap1\n      pop\n      jump\t// out\n\n    auxdata: 0xa26469706673582212208c2ba856ad6f062938c451c01a45075a2fbe2b5fdb5a24f597ad9622f965b34564736f6c634300081e0033\n}\n",
				"bytecode": {
					"linkReferences": {},
					"object": "6080604052348015600e575f5ffd5b50335f5f6101000a81548173ffffffffffffffffffffffffffffffffffffffff021916908373ffffffffffffffffffffffffffffffffffffffff160217905550610b9a8061005b5f395ff3fe608060405234801561000f575f5ffd5b5060043610610055575f3560e01c80632b2fa6b61461005957806375aaf4ba146100755780638da5cb5b14610091578063d8628357146100af578063f2fde38b146100cb575b5f5ffd5b610073600480360381019061006e919061063f565b6100e7565b005b61008f600480360381019061008a9190610726565b6101bd565b005b610099610290565b6040516100a6919061081d565b60405180910390f35b6100c960048036038101906100c49190610836565b6102b4565b005b6100e560048036038101906100e091906108d6565b610381565b005b5f5f9054906101000a900473ffffffffffffffffffffffffffffffffffffffff1673ffffffffffffffffffffffffffffffffffffffff163373ffffffffffffffffffffffffffffffffffffffff1614610175576040517f08c379a000000000000000000000000000000000000000000000000000000000815260040161016c9061095b565b60405180910390fd5b7fb1fb174d309350caca6887deeca3e81678a7a7b66ac7d3e70b8d482f052d5b6c8585858585426040516101ae969594939291906109d8565b60405180910390a15050505050565b5f5f9054906101000a900473ffffffffffffffffffffffffffffffffffffffff1673ffffffffffffffffffffffffffffffffffffffff163373ffffffffffffffffffffffffffffffffffffffff161461024b576040517f08c379a00000000000000000000000000000000000000000000000000000000081526004016102429061095b565b60405180910390fd5b7f9afdac1183831ea881cf02d9fab5b9205b3eca25add1b7f799a0f8cf855cd7e18484848442604051610282959493929190610a53565b60405180910390a150505050565b5f5f9054906101000a900473ffffffffffffffffffffffffffffffffffffffff1681565b5f5f9054906101000a900473ffffffffffffffffffffffffffffffffffffffff1673ffffffffffffffffffffffffffffffffffffffff163373ffffffffffffffffffffffffffffffffffffffff1614610342576040517f08c379a00000000000000000000000000000000000000000000000000000000081526004016103399061095b565b60405180910390fd5b7f1c5bd18aff5597bc35f31e98e4324ff45fe4290eaa764727b715ffeb3dc2218182824260405161037593929190610ab9565b60405180910390a15050565b5f5f9054906101000a900473ffffffffffffffffffffffffffffffffffffffff1673ffffffffffffffffffffffffffffffffffffffff163373ffffffffffffffffffffffffffffffffffffffff161461040f576040517f08c379a00000000000000000000000000000000000000000000000000000000081526004016104069061095b565b60405180910390fd5b5f73ffffffffffffffffffffffffffffffffffffffff168173ffffffffffffffffffffffffffffffffffffffff160361047d576040517f08c379a000000000000000000000000000000000000000000000000000000000815260040161047490610b46565b60405180910390fd5b805f5f6101000a81548173ffffffffffffffffffffffffffffffffffffffff021916908373ffffffffffffffffffffffffffffffffffffffff16021790555050565b5f604051905090565b5f5ffd5b5f5ffd5b5f5ffd5b5f5ffd5b5f601f19601f8301169050919050565b7f4e487b71000000000000000000000000000000000000000000000000000000005f52604160045260245ffd5b61051e826104d8565b810181811067ffffffffffffffff8211171561053d5761053c6104e8565b5b80604052505050565b5f61054f6104bf565b905061055b8282610515565b919050565b5f67ffffffffffffffff82111561057a576105796104e8565b5b610583826104d8565b9050602081019050919050565b828183375f83830152505050565b5f6105b06105ab84610560565b610546565b9050828152602081018484840111156105cc576105cb6104d4565b5b6105d7848285610590565b509392505050565b5f82601f8301126105f3576105f26104d0565b5b813561060384826020860161059e565b91505092915050565b5f819050919050565b61061e8161060c565b8114610628575f5ffd5b50565b5f8135905061063981610615565b92915050565b5f5f5f5f5f60a08688031215610658576106576104c8565b5b5f86013567ffffffffffffffff811115610675576106746104cc565b5b610681888289016105df565b955050602086013567ffffffffffffffff8111156106a2576106a16104cc565b5b6106ae888289016105df565b945050604086013567ffffffffffffffff8111156106cf576106ce6104cc565b5b6106db888289016105df565b93505060606106ec8882890161062b565b925050608086013567ffffffffffffffff81111561070d5761070c6104cc565b5b610719888289016105df565b9150509295509295909350565b5f5f5f5f6080858703121561073e5761073d6104c8565b5b5f85013567ffffffffffffffff81111561075b5761075a6104cc565b5b610767878288016105df565b945050602085013567ffffffffffffffff811115610788576107876104cc565b5b610794878288016105df565b93505060406107a58782880161062b565b925050606085013567ffffffffffffffff8111156107c6576107c56104cc565b5b6107d2878288016105df565b91505092959194509250565b5f73ffffffffffffffffffffffffffffffffffffffff82169050919050565b5f610807826107de565b9050919050565b610817816107fd565b82525050565b5f6020820190506108305f83018461080e565b92915050565b5f5f6040838503121561084c5761084b6104c8565b5b5f83013567ffffffffffffffff811115610869576108686104cc565b5b610875858286016105df565b925050602083013567ffffffffffffffff811115610896576108956104cc565b5b6108a2858286016105df565b9150509250929050565b6108b5816107fd565b81146108bf575f5ffd5b50565b5f813590506108d0816108ac565b92915050565b5f602082840312156108eb576108ea6104c8565b5b5f6108f8848285016108c2565b91505092915050565b5f82825260208201905092915050565b7f4e6f7420617574686f72697a65640000000000000000000000000000000000005f82015250565b5f610945600e83610901565b915061095082610911565b602082019050919050565b5f6020820190508181035f83015261097281610939565b9050919050565b5f81519050919050565b8281835e5f83830152505050565b5f61099b82610979565b6109a58185610901565b93506109b5818560208601610983565b6109be816104d8565b840191505092915050565b6109d28161060c565b82525050565b5f60c0820190508181035f8301526109f08189610991565b90508181036020830152610a048188610991565b90508181036040830152610a188187610991565b9050610a2760608301866109c9565b8181036080830152610a398185610991565b9050610a4860a08301846109c9565b979650505050505050565b5f60a0820190508181035f830152610a6b8188610991565b90508181036020830152610a7f8187610991565b9050610a8e60408301866109c9565b8181036060830152610aa08185610991565b9050610aaf60808301846109c9565b9695505050505050565b5f6060820190508181035f830152610ad18186610991565b90508181036020830152610ae58185610991565b9050610af460408301846109c9565b949350505050565b7f496e76616c6964206164647265737300000000000000000000000000000000005f82015250565b5f610b30600f83610901565b9150610b3b82610afc565b602082019050919050565b5f6020820190508181035f830152610b5d81610b24565b905091905056fea26469706673582212208c2ba856ad6f062938c451c01a45075a2fbe2b5fdb5a24f597ad9622f965b34564736f6c634300081e0033",
					"opcodes": "PUSH1 0x80 PUSH1 0x40 MSTORE CALLVALUE DUP1 ISZERO PUSH1 0xE JUMPI PUSH0 PUSH0 REVERT JUMPDEST POP CALLER PUSH0 PUSH0 PUSH2 0x100 EXP DUP2 SLOAD DUP2 PUSH20 0xFFFFFFFFFFFFFFFFFFFFFFFFFFFFFFFFFFFFFFFF MUL NOT AND SWAP1 DUP4 PUSH20 0xFFFFFFFFFFFFFFFFFFFFFFFFFFFFFFFFFFFFFFFF AND MUL OR SWAP1 SSTORE POP PUSH2 0xB9A DUP1 PUSH2 0x5B PUSH0 CODECOPY PUSH0 RETURN INVALID PUSH1 0x80 PUSH1 0x40 MSTORE CALLVALUE DUP1 ISZERO PUSH2 0xF JUMPI PUSH0 PUSH0 REVERT JUMPDEST POP PUSH1 0x4 CALLDATASIZE LT PUSH2 0x55 JUMPI PUSH0 CALLDATALOAD PUSH1 0xE0 SHR DUP1 PUSH4 0x2B2FA6B6 EQ PUSH2 0x59 JUMPI DUP1 PUSH4 0x75AAF4BA EQ PUSH2 0x75 JUMPI DUP1 PUSH4 0x8DA5CB5B EQ PUSH2 0x91 JUMPI DUP1 PUSH4 0xD8628357 EQ PUSH2 0xAF JUMPI DUP1 PUSH4 0xF2FDE38B EQ PUSH2 0xCB JUMPI JUMPDEST PUSH0 PUSH0 REVERT JUMPDEST PUSH2 0x73 PUSH1 0x4 DUP1 CALLDATASIZE SUB DUP2 ADD SWAP1 PUSH2 0x6E SWAP2 SWAP1 PUSH2 0x63F JUMP JUMPDEST PUSH2 0xE7 JUMP JUMPDEST STOP JUMPDEST PUSH2 0x8F PUSH1 0x4 DUP1 CALLDATASIZE SUB DUP2 ADD SWAP1 PUSH2 0x8A SWAP2 SWAP1 PUSH2 0x726 JUMP JUMPDEST PUSH2 0x1BD JUMP JUMPDEST STOP JUMPDEST PUSH2 0x99 PUSH2 0x290 JUMP JUMPDEST PUSH1 0x40 MLOAD PUSH2 0xA6 SWAP2 SWAP1 PUSH2 0x81D JUMP JUMPDEST PUSH1 0x40 MLOAD DUP1 SWAP2 SUB SWAP1 RETURN JUMPDEST PUSH2 0xC9 PUSH1 0x4 DUP1 CALLDATASIZE SUB DUP2 ADD SWAP1 PUSH2 0xC4 SWAP2 SWAP1 PUSH2 0x836 JUMP JUMPDEST PUSH2 0x2B4 JUMP JUMPDEST STOP JUMPDEST PUSH2 0xE5 PUSH1 0x4 DUP1 CALLDATASIZE SUB DUP2 ADD SWAP1 PUSH2 0xE0 SWAP2 SWAP1 PUSH2 0x8D6 JUMP JUMPDEST PUSH2 0x381 JUMP JUMPDEST STOP JUMPDEST PUSH0 PUSH0 SWAP1 SLOAD SWAP1 PUSH2 0x100 EXP SWAP1 DIV PUSH20 0xFFFFFFFFFFFFFFFFFFFFFFFFFFFFFFFFFFFFFFFF AND PUSH20 0xFFFFFFFFFFFFFFFFFFFFFFFFFFFFFFFFFFFFFFFF AND CALLER PUSH20 0xFFFFFFFFFFFFFFFFFFFFFFFFFFFFFFFFFFFFFFFF AND EQ PUSH2 0x175 JUMPI PUSH1 0x40 MLOAD PUSH32 0x8C379A000000000000000000000000000000000000000000000000000000000 DUP2 MSTORE PUSH1 0x4 ADD PUSH2 0x16C SWAP1 PUSH2 0x95B JUMP JUMPDEST PUSH1 0x40 MLOAD DUP1 SWAP2 SUB SWAP1 REVERT JUMPDEST PUSH32 0xB1FB174D309350CACA6887DEECA3E81678A7A7B66AC7D3E70B8D482F052D5B6C DUP6 DUP6 DUP6 DUP6 DUP6 TIMESTAMP PUSH1 0x40 MLOAD PUSH2 0x1AE SWAP7 SWAP6 SWAP5 SWAP4 SWAP3 SWAP2 SWAP1 PUSH2 0x9D8 JUMP JUMPDEST PUSH1 0x40 MLOAD DUP1 SWAP2 SUB SWAP1 LOG1 POP POP POP POP POP JUMP JUMPDEST PUSH0 PUSH0 SWAP1 SLOAD SWAP1 PUSH2 0x100 EXP SWAP1 DIV PUSH20 0xFFFFFFFFFFFFFFFFFFFFFFFFFFFFFFFFFFFFFFFF AND PUSH20 0xFFFFFFFFFFFFFFFFFFFFFFFFFFFFFFFFFFFFFFFF AND CALLER PUSH20 0xFFFFFFFFFFFFFFFFFFFFFFFFFFFFFFFFFFFFFFFF AND EQ PUSH2 0x24B JUMPI PUSH1 0x40 MLOAD PUSH32 0x8C379A000000000000000000000000000000000000000000000000000000000 DUP2 MSTORE PUSH1 0x4 ADD PUSH2 0x242 SWAP1 PUSH2 0x95B JUMP JUMPDEST PUSH1 0x40 MLOAD DUP1 SWAP2 SUB SWAP1 REVERT JUMPDEST PUSH32 0x9AFDAC1183831EA881CF02D9FAB5B9205B3ECA25ADD1B7F799A0F8CF855CD7E1 DUP5 DUP5 DUP5 DUP5 TIMESTAMP PUSH1 0x40 MLOAD PUSH2 0x282 SWAP6 SWAP5 SWAP4 SWAP3 SWAP2 SWAP1 PUSH2 0xA53 JUMP JUMPDEST PUSH1 0x40 MLOAD DUP1 SWAP2 SUB SWAP1 LOG1 POP POP POP POP JUMP JUMPDEST PUSH0 PUSH0 SWAP1 SLOAD SWAP1 PUSH2 0x100 EXP SWAP1 DIV PUSH20 0xFFFFFFFFFFFFFFFFFFFFFFFFFFFFFFFFFFFFFFFF AND DUP2 JUMP JUMPDEST PUSH0 PUSH0 SWAP1 SLOAD SWAP1 PUSH2 0x100 EXP SWAP1 DIV PUSH20 0xFFFFFFFFFFFFFFFFFFFFFFFFFFFFFFFFFFFFFFFF AND PUSH20 0xFFFFFFFFFFFFFFFFFFFFFFFFFFFFFFFFFFFFFFFF AND CALLER PUSH20 0xFFFFFFFFFFFFFFFFFFFFFFFFFFFFFFFFFFFFFFFF AND EQ PUSH2 0x342 JUMPI PUSH1 0x40 MLOAD PUSH32 0x8C379A000000000000000000000000000000000000000000000000000000000 DUP2 MSTORE PUSH1 0x4 ADD PUSH2 0x339 SWAP1 PUSH2 0x95B JUMP JUMPDEST PUSH1 0x40 MLOAD DUP1 SWAP2 SUB SWAP1 REVERT JUMPDEST PUSH32 0x1C5BD18AFF5597BC35F31E98E4324FF45FE4290EAA764727B715FFEB3DC22181 DUP3 DUP3 TIMESTAMP PUSH1 0x40 MLOAD PUSH2 0x375 SWAP4 SWAP3 SWAP2 SWAP1 PUSH2 0xAB9 JUMP JUMPDEST PUSH1 0x40 MLOAD DUP1 SWAP2 SUB SWAP1 LOG1 POP POP JUMP JUMPDEST PUSH0 PUSH0 SWAP1 SLOAD SWAP1 PUSH2 0x100 EXP SWAP1 DIV PUSH20 0xFFFFFFFFFFFFFFFFFFFFFFFFFFFFFFFFFFFFFFFF AND PUSH20 0xFFFFFFFFFFFFFFFFFFFFFFFFFFFFFFFFFFFFFFFF AND CALLER PUSH20 0xFFFFFFFFFFFFFFFFFFFFFFFFFFFFFFFFFFFFFFFF AND EQ PUSH2 0x40F JUMPI PUSH1 0x40 MLOAD PUSH32 0x8C379A000000000000000000000000000000000000000000000000000000000 DUP2 MSTORE PUSH1 0x4 ADD PUSH2 0x406 SWAP1 PUSH2 0x95B JUMP JUMPDEST PUSH1 0x40 MLOAD DUP1 SWAP2 SUB SWAP1 REVERT JUMPDEST PUSH0 PUSH20 0xFFFFFFFFFFFFFFFFFFFFFFFFFFFFFFFFFFFFFFFF AND DUP2 PUSH20 0xFFFFFFFFFFFFFFFFFFFFFFFFFFFFFFFFFFFFFFFF AND SUB PUSH2 0x47D JUMPI PUSH1 0x40 MLOAD PUSH32 0x8C379A000000000000000000000000000000000000000000000000000000000 DUP2 MSTORE PUSH1 0x4 ADD PUSH2 0x474 SWAP1 PUSH2 0xB46 JUMP JUMPDEST PUSH1 0x40 MLOAD DUP1 SWAP2 SUB SWAP1 REVERT JUMPDEST DUP1 PUSH0 PUSH0 PUSH2 0x100 EXP DUP2 SLOAD DUP2 PUSH20 0xFFFFFFFFFFFFFFFFFFFFFFFFFFFFFFFFFFFFFFFF MUL NOT AND SWAP1 DUP4 PUSH20 0xFFFFFFFFFFFFFFFFFFFFFFFFFFFFFFFFFFFFFFFF AND MUL OR SWAP1 SSTORE POP POP JUMP JUMPDEST PUSH0 PUSH1 0x40 MLOAD SWAP1 POP SWAP1 JUMP JUMPDEST PUSH0 PUSH0 REVERT JUMPDEST PUSH0 PUSH0 REVERT JUMPDEST PUSH0 PUSH0 REVERT JUMPDEST PUSH0 PUSH0 REVERT JUMPDEST PUSH0 PUSH1 0x1F NOT PUSH1 0x1F DUP4 ADD AND SWAP1 POP SWAP2 SWAP1 POP JUMP JUMPDEST PUSH32 0x4E487B7100000000000000000000000000000000000000000000000000000000 PUSH0 MSTORE PUSH1 0x41 PUSH1 0x4 MSTORE PUSH1 0x24 PUSH0 REVERT JUMPDEST PUSH2 0x51E DUP3 PUSH2 0x4D8 JUMP JUMPDEST DUP2 ADD DUP2 DUP2 LT PUSH8 0xFFFFFFFFFFFFFFFF DUP3 GT OR ISZERO PUSH2 0x53D JUMPI PUSH2 0x53C PUSH2 0x4E8 JUMP JUMPDEST JUMPDEST DUP1 PUSH1 0x40 MSTORE POP POP POP JUMP JUMPDEST PUSH0 PUSH2 0x54F PUSH2 0x4BF JUMP JUMPDEST SWAP1 POP PUSH2 0x55B DUP3 DUP3 PUSH2 0x515 JUMP JUMPDEST SWAP2 SWAP1 POP JUMP JUMPDEST PUSH0 PUSH8 0xFFFFFFFFFFFFFFFF DUP3 GT ISZERO PUSH2 0x57A JUMPI PUSH2 0x579 PUSH2 0x4E8 JUMP JUMPDEST JUMPDEST PUSH2 0x583 DUP3 PUSH2 0x4D8 JUMP JUMPDEST SWAP1 POP PUSH1 0x20 DUP2 ADD SWAP1 POP SWAP2 SWAP1 POP JUMP JUMPDEST DUP3 DUP2 DUP4 CALLDATACOPY PUSH0 DUP4 DUP4 ADD MSTORE POP POP POP JUMP JUMPDEST PUSH0 PUSH2 0x5B0 PUSH2 0x5AB DUP5 PUSH2 0x560 JUMP JUMPDEST PUSH2 0x546 JUMP JUMPDEST SWAP1 POP DUP3 DUP2 MSTORE PUSH1 0x20 DUP2 ADD DUP5 DUP5 DUP5 ADD GT ISZERO PUSH2 0x5CC JUMPI PUSH2 0x5CB PUSH2 0x4D4 JUMP JUMPDEST JUMPDEST PUSH2 0x5D7 DUP5 DUP3 DUP6 PUSH2 0x590 JUMP JUMPDEST POP SWAP4 SWAP3 POP POP POP JUMP JUMPDEST PUSH0 DUP3 PUSH1 0x1F DUP4 ADD SLT PUSH2 0x5F3 JUMPI PUSH2 0x5F2 PUSH2 0x4D0 JUMP JUMPDEST JUMPDEST DUP2 CALLDATALOAD PUSH2 0x603 DUP5 DUP3 PUSH1 0x20 DUP7 ADD PUSH2 0x59E JUMP JUMPDEST SWAP2 POP POP SWAP3 SWAP2 POP POP JUMP JUMPDEST PUSH0 DUP2 SWAP1 POP SWAP2 SWAP1 POP JUMP JUMPDEST PUSH2 0x61E DUP2 PUSH2 0x60C JUMP JUMPDEST DUP2 EQ PUSH2 0x628 JUMPI PUSH0 PUSH0 REVERT JUMPDEST POP JUMP JUMPDEST PUSH0 DUP2 CALLDATALOAD SWAP1 POP PUSH2 0x639 DUP2 PUSH2 0x615 JUMP JUMPDEST SWAP3 SWAP2 POP POP JUMP JUMPDEST PUSH0 PUSH0 PUSH0 PUSH0 PUSH0 PUSH1 0xA0 DUP7 DUP9 SUB SLT ISZERO PUSH2 0x658 JUMPI PUSH2 0x657 PUSH2 0x4C8 JUMP JUMPDEST JUMPDEST PUSH0 DUP7 ADD CALLDATALOAD PUSH8 0xFFFFFFFFFFFFFFFF DUP2 GT ISZERO PUSH2 0x675 JUMPI PUSH2 0x674 PUSH2 0x4CC JUMP JUMPDEST JUMPDEST PUSH2 0x681 DUP9 DUP3 DUP10 ADD PUSH2 0x5DF JUMP JUMPDEST SWAP6 POP POP PUSH1 0x20 DUP7 ADD CALLDATALOAD PUSH8 0xFFFFFFFFFFFFFFFF DUP2 GT ISZERO PUSH2 0x6A2 JUMPI PUSH2 0x6A1 PUSH2 0x4CC JUMP JUMPDEST JUMPDEST PUSH2 0x6AE DUP9 DUP3 DUP10 ADD PUSH2 0x5DF JUMP JUMPDEST SWAP5 POP POP PUSH1 0x40 DUP7 ADD CALLDATALOAD PUSH8 0xFFFFFFFFFFFFFFFF DUP2 GT ISZERO PUSH2 0x6CF JUMPI PUSH2 0x6CE PUSH2 0x4CC JUMP JUMPDEST JUMPDEST PUSH2 0x6DB DUP9 DUP3 DUP10 ADD PUSH2 0x5DF JUMP JUMPDEST SWAP4 POP POP PUSH1 0x60 PUSH2 0x6EC DUP9 DUP3 DUP10 ADD PUSH2 0x62B JUMP JUMPDEST SWAP3 POP POP PUSH1 0x80 DUP7 ADD CALLDATALOAD PUSH8 0xFFFFFFFFFFFFFFFF DUP2 GT ISZERO PUSH2 0x70D JUMPI PUSH2 0x70C PUSH2 0x4CC JUMP JUMPDEST JUMPDEST PUSH2 0x719 DUP9 DUP3 DUP10 ADD PUSH2 0x5DF JUMP JUMPDEST SWAP2 POP POP SWAP3 SWAP6 POP SWAP3 SWAP6 SWAP1 SWAP4 POP JUMP JUMPDEST PUSH0 PUSH0 PUSH0 PUSH0 PUSH1 0x80 DUP6 DUP8 SUB SLT ISZERO PUSH2 0x73E JUMPI PUSH2 0x73D PUSH2 0x4C8 JUMP JUMPDEST JUMPDEST PUSH0 DUP6 ADD CALLDATALOAD PUSH8 0xFFFFFFFFFFFFFFFF DUP2 GT ISZERO PUSH2 0x75B JUMPI PUSH2 0x75A PUSH2 0x4CC JUMP JUMPDEST JUMPDEST PUSH2 0x767 DUP8 DUP3 DUP9 ADD PUSH2 0x5DF JUMP JUMPDEST SWAP5 POP POP PUSH1 0x20 DUP6 ADD CALLDATALOAD PUSH8 0xFFFFFFFFFFFFFFFF DUP2 GT ISZERO PUSH2 0x788 JUMPI PUSH2 0x787 PUSH2 0x4CC JUMP JUMPDEST JUMPDEST PUSH2 0x794 DUP8 DUP3 DUP9 ADD PUSH2 0x5DF JUMP JUMPDEST SWAP4 POP POP PUSH1 0x40 PUSH2 0x7A5 DUP8 DUP3 DUP9 ADD PUSH2 0x62B JUMP JUMPDEST SWAP3 POP POP PUSH1 0x60 DUP6 ADD CALLDATALOAD PUSH8 0xFFFFFFFFFFFFFFFF DUP2 GT ISZERO PUSH2 0x7C6 JUMPI PUSH2 0x7C5 PUSH2 0x4CC JUMP JUMPDEST JUMPDEST PUSH2 0x7D2 DUP8 DUP3 DUP9 ADD PUSH2 0x5DF JUMP JUMPDEST SWAP2 POP POP SWAP3 SWAP6 SWAP2 SWAP5 POP SWAP3 POP JUMP JUMPDEST PUSH0 PUSH20 0xFFFFFFFFFFFFFFFFFFFFFFFFFFFFFFFFFFFFFFFF DUP3 AND SWAP1 POP SWAP2 SWAP1 POP JUMP JUMPDEST PUSH0 PUSH2 0x807 DUP3 PUSH2 0x7DE JUMP JUMPDEST SWAP1 POP SWAP2 SWAP1 POP JUMP JUMPDEST PUSH2 0x817 DUP2 PUSH2 0x7FD JUMP JUMPDEST DUP3 MSTORE POP POP JUMP JUMPDEST PUSH0 PUSH1 0x20 DUP3 ADD SWAP1 POP PUSH2 0x830 PUSH0 DUP4 ADD DUP5 PUSH2 0x80E JUMP JUMPDEST SWAP3 SWAP2 POP POP JUMP JUMPDEST PUSH0 PUSH0 PUSH1 0x40 DUP4 DUP6 SUB SLT ISZERO PUSH2 0x84C JUMPI PUSH2 0x84B PUSH2 0x4C8 JUMP JUMPDEST JUMPDEST PUSH0 DUP4 ADD CALLDATALOAD PUSH8 0xFFFFFFFFFFFFFFFF DUP2 GT ISZERO PUSH2 0x869 JUMPI PUSH2 0x868 PUSH2 0x4CC JUMP JUMPDEST JUMPDEST PUSH2 0x875 DUP6 DUP3 DUP7 ADD PUSH2 0x5DF JUMP JUMPDEST SWAP3 POP POP PUSH1 0x20 DUP4 ADD CALLDATALOAD PUSH8 0xFFFFFFFFFFFFFFFF DUP2 GT ISZERO PUSH2 0x896 JUMPI PUSH2 0x895 PUSH2 0x4CC JUMP JUMPDEST JUMPDEST PUSH2 0x8A2 DUP6 DUP3 DUP7 ADD PUSH2 0x5DF JUMP JUMPDEST SWAP2 POP POP SWAP3 POP SWAP3 SWAP1 POP JUMP JUMPDEST PUSH2 0x8B5 DUP2 PUSH2 0x7FD JUMP JUMPDEST DUP2 EQ PUSH2 0x8BF JUMPI PUSH0 PUSH0 REVERT JUMPDEST POP JUMP JUMPDEST PUSH0 DUP2 CALLDATALOAD SWAP1 POP PUSH2 0x8D0 DUP2 PUSH2 0x8AC JUMP JUMPDEST SWAP3 SWAP2 POP POP JUMP JUMPDEST PUSH0 PUSH1 0x20 DUP3 DUP5 SUB SLT ISZERO PUSH2 0x8EB JUMPI PUSH2 0x8EA PUSH2 0x4C8 JUMP JUMPDEST JUMPDEST PUSH0 PUSH2 0x8F8 DUP5 DUP3 DUP6 ADD PUSH2 0x8C2 JUMP JUMPDEST SWAP2 POP POP SWAP3 SWAP2 POP POP JUMP JUMPDEST PUSH0 DUP3 DUP3 MSTORE PUSH1 0x20 DUP3 ADD SWAP1 POP SWAP3 SWAP2 POP POP JUMP JUMPDEST PUSH32 0x4E6F7420617574686F72697A6564000000000000000000000000000000000000 PUSH0 DUP3 ADD MSTORE POP JUMP JUMPDEST PUSH0 PUSH2 0x945 PUSH1 0xE DUP4 PUSH2 0x901 JUMP JUMPDEST SWAP2 POP PUSH2 0x950 DUP3 PUSH2 0x911 JUMP JUMPDEST PUSH1 0x20 DUP3 ADD SWAP1 POP SWAP2 SWAP1 POP JUMP JUMPDEST PUSH0 PUSH1 0x20 DUP3 ADD SWAP1 POP DUP2 DUP2 SUB PUSH0 DUP4 ADD MSTORE PUSH2 0x972 DUP2 PUSH2 0x939 JUMP JUMPDEST SWAP1 POP SWAP2 SWAP1 POP JUMP JUMPDEST PUSH0 DUP2 MLOAD SWAP1 POP SWAP2 SWAP1 POP JUMP JUMPDEST DUP3 DUP2 DUP4 MCOPY PUSH0 DUP4 DUP4 ADD MSTORE POP POP POP JUMP JUMPDEST PUSH0 PUSH2 0x99B DUP3 PUSH2 0x979 JUMP JUMPDEST PUSH2 0x9A5 DUP2 DUP6 PUSH2 0x901 JUMP JUMPDEST SWAP4 POP PUSH2 0x9B5 DUP2 DUP6 PUSH1 0x20 DUP7 ADD PUSH2 0x983 JUMP JUMPDEST PUSH2 0x9BE DUP2 PUSH2 0x4D8 JUMP JUMPDEST DUP5 ADD SWAP2 POP POP SWAP3 SWAP2 POP POP JUMP JUMPDEST PUSH2 0x9D2 DUP2 PUSH2 0x60C JUMP JUMPDEST DUP3 MSTORE POP POP JUMP JUMPDEST PUSH0 PUSH1 0xC0 DUP3 ADD SWAP1 POP DUP2 DUP2 SUB PUSH0 DUP4 ADD MSTORE PUSH2 0x9F0 DUP2 DUP10 PUSH2 0x991 JUMP JUMPDEST SWAP1 POP DUP2 DUP2 SUB PUSH1 0x20 DUP4 ADD MSTORE PUSH2 0xA04 DUP2 DUP9 PUSH2 0x991 JUMP JUMPDEST SWAP1 POP DUP2 DUP2 SUB PUSH1 0x40 DUP4 ADD MSTORE PUSH2 0xA18 DUP2 DUP8 PUSH2 0x991 JUMP JUMPDEST SWAP1 POP PUSH2 0xA27 PUSH1 0x60 DUP4 ADD DUP7 PUSH2 0x9C9 JUMP JUMPDEST DUP2 DUP2 SUB PUSH1 0x80 DUP4 ADD MSTORE PUSH2 0xA39 DUP2 DUP6 PUSH2 0x991 JUMP JUMPDEST SWAP1 POP PUSH2 0xA48 PUSH1 0xA0 DUP4 ADD DUP5 PUSH2 0x9C9 JUMP JUMPDEST SWAP8 SWAP7 POP POP POP POP POP POP POP JUMP JUMPDEST PUSH0 PUSH1 0xA0 DUP3 ADD SWAP1 POP DUP2 DUP2 SUB PUSH0 DUP4 ADD MSTORE PUSH2 0xA6B DUP2 DUP9 PUSH2 0x991 JUMP JUMPDEST SWAP1 POP DUP2 DUP2 SUB PUSH1 0x20 DUP4 ADD MSTORE PUSH2 0xA7F DUP2 DUP8 PUSH2 0x991 JUMP JUMPDEST SWAP1 POP PUSH2 0xA8E PUSH1 0x40 DUP4 ADD DUP7 PUSH2 0x9C9 JUMP JUMPDEST DUP2 DUP2 SUB PUSH1 0x60 DUP4 ADD MSTORE PUSH2 0xAA0 DUP2 DUP6 PUSH2 0x991 JUMP JUMPDEST SWAP1 POP PUSH2 0xAAF PUSH1 0x80 DUP4 ADD DUP5 PUSH2 0x9C9 JUMP JUMPDEST SWAP7 SWAP6 POP POP POP POP POP POP JUMP JUMPDEST PUSH0 PUSH1 0x60 DUP3 ADD SWAP1 POP DUP2 DUP2 SUB PUSH0 DUP4 ADD MSTORE PUSH2 0xAD1 DUP2 DUP7 PUSH2 0x991 JUMP JUMPDEST SWAP1 POP DUP2 DUP2 SUB PUSH1 0x20 DUP4 ADD MSTORE PUSH2 0xAE5 DUP2 DUP6 PUSH2 0x991 JUMP JUMPDEST SWAP1 POP PUSH2 0xAF4 PUSH1 0x40 DUP4 ADD DUP5 PUSH2 0x9C9 JUMP JUMPDEST SWAP5 SWAP4 POP POP POP POP JUMP JUMPDEST PUSH32 0x496E76616C696420616464726573730000000000000000000000000000000000 PUSH0 DUP3 ADD MSTORE POP JUMP JUMPDEST PUSH0 PUSH2 0xB30 PUSH1 0xF DUP4 PUSH2 0x901 JUMP JUMPDEST SWAP2 POP PUSH2 0xB3B DUP3 PUSH2 0xAFC JUMP JUMPDEST PUSH1 0x20 DUP3 ADD SWAP1 POP SWAP2 SWAP1 POP JUMP JUMPDEST PUSH0 PUSH1 0x20 DUP3 ADD SWAP1 POP DUP2 DUP2 SUB PUSH0 DUP4 ADD MSTORE PUSH2 0xB5D DUP2 PUSH2 0xB24 JUMP JUMPDEST SWAP1 POP SWAP2 SWAP1 POP JUMP INVALID LOG2 PUSH5 0x6970667358 0x22 SLT KECCAK256 DUP13 0x2B 0xA8 JUMP 0xAD PUSH16 0x62938C451C01A45075A2FBE2B5FDB5A 0x24 CREATE2 SWAP8 0xAD SWAP7 0x22 EXTDELEGATECALL PUSH6 0xB34564736F6C PUSH4 0x4300081E STOP CALLER "
				},
				"gasEstimates": {
					"creation": {
						"codeDepositCost": "594000",
						"executionCost": "24887",
						"totalCost": "618887"
					},
					"external": {
						"logTransaction(string,string)": "infinite",
						"owner()": "2529",
						"recordBrinksCollection(string,string,uint256,string)": "infinite",
						"recordLedgerEvent(string,string,string,uint256,string)": "infinite",
						"transferOwnership(address)": "26982"
					}
				},
				"methodIdentifiers": {
					"logTransaction(string,string)": "d8628357",
					"owner()": "8da5cb5b",
					"recordBrinksCollection(string,string,uint256,string)": "75aaf4ba",
					"recordLedgerEvent(string,string,string,uint256,string)": "2b2fa6b6",
					"transferOwnership(address)": "f2fde38b"
				}
			},
			"storageLayout": {
				"storage": [
					{
						"astId": 3,
						"contract": "contracts/JarvisLedger.sol:JarvisLedger",
						"label": "owner",
						"offset": 0,
						"slot": "0",
						"type": "t_address"
					}
				],
				"types": {
					"t_address": {
						"encoding": "inplace",
						"label": "address",
						"numberOfBytes": "20"
					}
				}
			},
			"userdoc": {
				"kind": "user",
				"methods": {},
				"version": 1
			}
		}
	}
}